{
  "_format": "hh-sol-artifact-1",
  "contractName": "AgentMarketplace",
  "sourceName": "contracts/AgentMarketplace.sol",
  "abi": [
    {
      "inputs": [
        {
          "internalType": "address",
          "name": "_agentNFT",
          "type": "address"
        },
        {
          "internalType": "address",
          "name": "_treasury",
          "type": "address"
        }
      ],
      "stateMutability": "nonpayable",
      "type": "constructor"
    },
    {
      "inputs": [],
      "name": "InvalidShortString",
      "type": "error"
    },
    {
      "inputs": [
        {
          "internalType": "address",
          "name": "owner",
          "type": "address"
        }
      ],
      "name": "OwnableInvalidOwner",
      "type": "error"
    },
    {
      "inputs": [
        {
          "internalType": "address",
          "name": "account",
          "type": "address"
        }
      ],
      "name": "OwnableUnauthorizedAccount",
      "type": "error"
    },
    {
      "inputs": [],
      "name": "ReentrancyGuardReentrantCall",
      "type": "error"
    },
    {
      "inputs": [
        {
          "internalType": "string",
          "name": "str",
          "type": "string"
        }
      ],
      "name": "StringTooLong",
      "type": "error"
    },
    {
      "anonymous": false,
      "inputs": [
        {
          "indexed": true,
          "internalType": "uint256",
          "name": "sourceTokenId",
          "type": "uint256"
        },
        {
          "indexed": true,
          "internalType": "uint256",
          "name": "newTokenId",
          "type": "uint256"
        },
        {
          "indexed": true,
          "internalType": "address",
          "name": "buyer",
          "type": "address"
        }
      ],
      "name": "AgentCloned",
      "type": "event"
    },
    {
      "anonymous": false,
      "inputs": [
        {
          "indexed": true,
          "internalType": "uint256",
          "name": "tokenId",
          "type": "uint256"
        }
      ],
      "name": "AgentDelisted",
      "type": "event"
    },
    {
      "anonymous": false,
      "inputs": [
        {
          "indexed": true,
          "internalType": "uint256",
          "name": "tokenId",
          "type": "uint256"
        },
        {
          "indexed": true,
          "internalType": "address",
          "name": "seller",
          "type": "address"
        },
        {
          "indexed": false,
          "internalType": "uint256",
          "name": "price",
          "type": "uint256"
        },
        {
          "indexed": false,
          "internalType": "uint256",
          "name": "rentalPricePerHour",
          "type": "uint256"
        }
      ],
      "name": "AgentListed",
      "type": "event"
    },
    {
      "anonymous": false,
      "inputs": [
        {
          "indexed": true,
          "internalType": "uint256",
          "name": "tokenId",
          "type": "uint256"
        },
        {
          "indexed": true,
          "internalType": "address",
          "name": "renter",
          "type": "address"
        },
        {
          "indexed": false,
          "internalType": "uint256",
          "name": "duration",
          "type": "uint256"
        },
        {
          "indexed": false,
          "internalType": "uint256",
          "name": "paid",
          "type": "uint256"
        }
      ],
      "name": "AgentRented",
      "type": "event"
    },
    {
      "anonymous": false,
      "inputs": [
        {
          "indexed": true,
          "internalType": "uint256",
          "name": "tokenId",
          "type": "uint256"
        },
        {
          "indexed": true,
          "internalType": "address",
          "name": "buyer",
          "type": "address"
        },
        {
          "indexed": false,
          "internalType": "uint256",
          "name": "price",
          "type": "uint256"
        }
      ],
      "name": "AgentSold",
      "type": "event"
    },
    {
      "anonymous": false,
      "inputs": [],
      "name": "EIP712DomainChanged",
      "type": "event"
    },
    {
      "anonymous": false,
      "inputs": [
        {
          "indexed": true,
          "internalType": "uint256",
          "name": "tokenId",
          "type": "uint256"
        },
        {
          "indexed": true,
          "internalType": "address",
          "name": "buyer",
          "type": "address"
        },
        {
          "indexed": false,
          "internalType": "uint256",
          "name": "price",
          "type": "uint256"
        }
      ],
      "name": "OfferAccepted",
      "type": "event"
    },
    {
      "anonymous": false,
      "inputs": [
        {
          "indexed": true,
          "internalType": "uint256",
          "name": "tokenId",
          "type": "uint256"
        },
        {
          "indexed": true,
          "internalType": "address",
          "name": "buyer",
          "type": "address"
        },
        {
          "indexed": false,
          "internalType": "uint256",
          "name": "price",
          "type": "uint256"
        },
        {
          "indexed": false,
          "internalType": "uint256",
          "name": "expiry",
          "type": "uint256"
        }
      ],
      "name": "OfferMade",
      "type": "event"
    },
    {
      "anonymous": false,
      "inputs": [
        {
          "indexed": true,
          "internalType": "address",
          "name": "previousOwner",
          "type": "address"
        },
        {
          "indexed": true,
          "internalType": "address",
          "name": "newOwner",
          "type": "address"
        }
      ],
      "name": "OwnershipTransferred",
      "type": "event"
    },
    {
      "anonymous": false,
      "inputs": [
        {
          "indexed": true,
          "internalType": "uint256",
          "name": "tokenId",
          "type": "uint256"
        },
        {
          "indexed": true,
          "internalType": "address",
          "name": "renter",
          "type": "address"
        }
      ],
      "name": "RentalEnded",
      "type": "event"
    },
    {
      "inputs": [],
      "name": "BPS_BASE",
      "outputs": [
        {
          "internalType": "uint256",
          "name": "",
          "type": "uint256"
        }
      ],
      "stateMutability": "view",
      "type": "function"
    },
    {
      "inputs": [],
      "name": "PLATFORM_FEE_BPS",
      "outputs": [
        {
          "internalType": "uint256",
          "name": "",
          "type": "uint256"
        }
      ],
      "stateMutability": "view",
      "type": "function"
    },
    {
      "inputs": [],
      "name": "ROYALTY_BPS",
      "outputs": [
        {
          "internalType": "uint256",
          "name": "",
          "type": "uint256"
        }
      ],
      "stateMutability": "view",
      "type": "function"
    },
    {
      "inputs": [
        {
          "internalType": "uint256",
          "name": "tokenId",
          "type": "uint256"
        },
        {
          "internalType": "uint256",
          "name": "offerIndex",
          "type": "uint256"
        }
      ],
      "name": "acceptOffer",
      "outputs": [],
      "stateMutability": "nonpayable",
      "type": "function"
    },
    {
      "inputs": [],
      "name": "agentNFT",
      "outputs": [
        {
          "internalType": "contract IAgentNFTMarket",
          "name": "",
          "type": "address"
        }
      ],
      "stateMutability": "view",
      "type": "function"
    },
    {
      "inputs": [
        {
          "internalType": "uint256",
          "name": "tokenId",
          "type": "uint256"
        },
        {
          "internalType": "bytes",
          "name": "buyerPubKey",
          "type": "bytes"
        }
      ],
      "name": "buyAgent",
      "outputs": [],
      "stateMutability": "payable",
      "type": "function"
    },
    {
      "inputs": [
        {
          "internalType": "uint256",
          "name": "tokenId",
          "type": "uint256"
        },
        {
          "internalType": "bytes",
          "name": "sealedKey",
          "type": "bytes"
        }
      ],
      "name": "cloneAgent",
      "outputs": [
        {
          "internalType": "uint256",
          "name": "newTokenId",
          "type": "uint256"
        }
      ],
      "stateMutability": "payable",
      "type": "function"
    },
    {
      "inputs": [
        {
          "internalType": "uint256",
          "name": "tokenId",
          "type": "uint256"
        }
      ],
      "name": "delistAgent",
      "outputs": [],
      "stateMutability": "nonpayable",
      "type": "function"
    },
    {
      "inputs": [],
      "name": "eip712Domain",
      "outputs": [
        {
          "internalType": "bytes1",
          "name": "fields",
          "type": "bytes1"
        },
        {
          "internalType": "string",
          "name": "name",
          "type": "string"
        },
        {
          "internalType": "string",
          "name": "version",
          "type": "string"
        },
        {
          "internalType": "uint256",
          "name": "chainId",
          "type": "uint256"
        },
        {
          "internalType": "address",
          "name": "verifyingContract",
          "type": "address"
        },
        {
          "internalType": "bytes32",
          "name": "salt",
          "type": "bytes32"
        },
        {
          "internalType": "uint256[]",
          "name": "extensions",
          "type": "uint256[]"
        }
      ],
      "stateMutability": "view",
      "type": "function"
    },
    {
      "inputs": [
        {
          "internalType": "uint256",
          "name": "tokenId",
          "type": "uint256"
        }
      ],
      "name": "endRental",
      "outputs": [],
      "stateMutability": "nonpayable",
      "type": "function"
    },
    {
      "inputs": [
        {
          "internalType": "uint256",
          "name": "tokenId",
          "type": "uint256"
        }
      ],
      "name": "getListing",
      "outputs": [
        {
          "components": [
            {
              "internalType": "address",
              "name": "seller",
              "type": "address"
            },
            {
              "internalType": "uint256",
              "name": "price",
              "type": "uint256"
            },
            {
              "internalType": "uint256",
              "name": "rentalPricePerHour",
              "type": "uint256"
            },
            {
              "internalType": "uint256",
              "name": "cloneFeeOverride",
              "type": "uint256"
            },
            {
              "internalType": "bool",
              "name": "active",
              "type": "bool"
            }
          ],
          "internalType": "struct AgentMarketplace.Listing",
          "name": "",
          "type": "tuple"
        }
      ],
      "stateMutability": "view",
      "type": "function"
    },
    {
      "inputs": [
        {
          "internalType": "uint256",
          "name": "tokenId",
          "type": "uint256"
        }
      ],
      "name": "getOffers",
      "outputs": [
        {
          "components": [
            {
              "internalType": "address",
              "name": "buyer",
              "type": "address"
            },
            {
              "internalType": "uint256",
              "name": "offerPrice",
              "type": "uint256"
            },
            {
              "internalType": "uint256",
              "name": "expiry",
              "type": "uint256"
            },
            {
              "internalType": "bool",
              "name": "active",
              "type": "bool"
            }
          ],
          "internalType": "struct AgentMarketplace.Offer[]",
          "name": "",
          "type": "tuple[]"
        }
      ],
      "stateMutability": "view",
      "type": "function"
    },
    {
      "inputs": [
        {
          "internalType": "uint256",
          "name": "tokenId",
          "type": "uint256"
        }
      ],
      "name": "getRental",
      "outputs": [
        {
          "components": [
            {
              "internalType": "address",
              "name": "renter",
              "type": "address"
            },
            {
              "internalType": "uint256",
              "name": "startTime",
              "type": "uint256"
            },
            {
              "internalType": "uint256",
              "name": "duration",
              "type": "uint256"
            },
            {
              "internalType": "uint256",
              "name": "depositPaid",
              "type": "uint256"
            },
            {
              "internalType": "bool",
              "name": "active",
              "type": "bool"
            }
          ],
          "internalType": "struct AgentMarketplace.Rental",
          "name": "",
          "type": "tuple"
        }
      ],
      "stateMutability": "view",
      "type": "function"
    },
    {
      "inputs": [
        {
          "internalType": "uint256",
          "name": "tokenId",
          "type": "uint256"
        }
      ],
      "name": "isRentalExpired",
      "outputs": [
        {
          "internalType": "bool",
          "name": "",
          "type": "bool"
        }
      ],
      "stateMutability": "view",
      "type": "function"
    },
    {
      "inputs": [
        {
          "internalType": "uint256",
          "name": "tokenId",
          "type": "uint256"
        },
        {
          "internalType": "uint256",
          "name": "price",
          "type": "uint256"
        },
        {
          "internalType": "uint256",
          "name": "rentalPricePerHour",
          "type": "uint256"
        }
      ],
      "name": "listAgent",
      "outputs": [],
      "stateMutability": "nonpayable",
      "type": "function"
    },
    {
      "inputs": [
        {
          "internalType": "uint256",
          "name": "",
          "type": "uint256"
        }
      ],
      "name": "listings",
      "outputs": [
        {
          "internalType": "address",
          "name": "seller",
          "type": "address"
        },
        {
          "internalType": "uint256",
          "name": "price",
          "type": "uint256"
        },
        {
          "internalType": "uint256",
          "name": "rentalPricePerHour",
          "type": "uint256"
        },
        {
          "internalType": "uint256",
          "name": "cloneFeeOverride",
          "type": "uint256"
        },
        {
          "internalType": "bool",
          "name": "active",
          "type": "bool"
        }
      ],
      "stateMutability": "view",
      "type": "function"
    },
    {
      "inputs": [
        {
          "internalType": "uint256",
          "name": "tokenId",
          "type": "uint256"
        },
        {
          "internalType": "uint256",
          "name": "expiry",
          "type": "uint256"
        }
      ],
      "name": "makeOffer",
      "outputs": [],
      "stateMutability": "payable",
      "type": "function"
    },
    {
      "inputs": [
        {
          "internalType": "uint256",
          "name": "",
          "type": "uint256"
        },
        {
          "internalType": "uint256",
          "name": "",
          "type": "uint256"
        }
      ],
      "name": "offers",
      "outputs": [
        {
          "internalType": "address",
          "name": "buyer",
          "type": "address"
        },
        {
          "internalType": "uint256",
          "name": "offerPrice",
          "type": "uint256"
        },
        {
          "internalType": "uint256",
          "name": "expiry",
          "type": "uint256"
        },
        {
          "internalType": "bool",
          "name": "active",
          "type": "bool"
        }
      ],
      "stateMutability": "view",
      "type": "function"
    },
    {
      "inputs": [],
      "name": "owner",
      "outputs": [
        {
          "internalType": "address",
          "name": "",
          "type": "address"
        }
      ],
      "stateMutability": "view",
      "type": "function"
    },
    {
      "inputs": [],
      "name": "renounceOwnership",
      "outputs": [],
      "stateMutability": "nonpayable",
      "type": "function"
    },
    {
      "inputs": [
        {
          "internalType": "uint256",
          "name": "tokenId",
          "type": "uint256"
        },
        {
          "internalType": "uint256",
          "name": "durationHours",
          "type": "uint256"
        }
      ],
      "name": "rentAgent",
      "outputs": [],
      "stateMutability": "payable",
      "type": "function"
    },
    {
      "inputs": [
        {
          "internalType": "uint256",
          "name": "",
          "type": "uint256"
        }
      ],
      "name": "rentals",
      "outputs": [
        {
          "internalType": "address",
          "name": "renter",
          "type": "address"
        },
        {
          "internalType": "uint256",
          "name": "startTime",
          "type": "uint256"
        },
        {
          "internalType": "uint256",
          "name": "duration",
          "type": "uint256"
        },
        {
          "internalType": "uint256",
          "name": "depositPaid",
          "type": "uint256"
        },
        {
          "internalType": "bool",
          "name": "active",
          "type": "bool"
        }
      ],
      "stateMutability": "view",
      "type": "function"
    },
    {
      "inputs": [
        {
          "internalType": "address",
          "name": "_agentNFT",
          "type": "address"
        }
      ],
      "name": "setAgentNFT",
      "outputs": [],
      "stateMutability": "nonpayable",
      "type": "function"
    },
    {
      "inputs": [
        {
          "internalType": "address",
          "name": "_treasury",
          "type": "address"
        }
      ],
      "name": "setTreasury",
      "outputs": [],
      "stateMutability": "nonpayable",
      "type": "function"
    },
    {
      "inputs": [
        {
          "internalType": "address",
          "name": "newOwner",
          "type": "address"
        }
      ],
      "name": "transferOwnership",
      "outputs": [],
      "stateMutability": "nonpayable",
      "type": "function"
    },
    {
      "inputs": [],
      "name": "treasury",
      "outputs": [
        {
          "internalType": "address",
          "name": "",
          "type": "address"
        }
      ],
      "stateMutability": "view",
      "type": "function"
    },
    {
      "stateMutability": "payable",
      "type": "receive"
    }
  ],
  "bytecode": "0x610160604052348015610010575f80fd5b50604051612b46380380612b4683398101604081905261002f9161027c565b604080518082018252601081526f4167656e744d61726b6574706c61636560801b602080830191909152825180840190935260018352603160f81b9083015290338061009557604051631e4fbdf760e01b81525f60048201526024015b60405180910390fd5b61009e816101a3565b5060017f9b779b17422d0df92223018b32b4d1fa46e071723d6817e2486d003becc55f00556100ce8260016101f2565b610120526100dd8160026101f2565b61014052815160208084019190912060e052815190820120610100524660a05261016960e05161010051604080517f8b73c3c69bb8fe3d512ecc4cf759cc79239f7b179b0ffacaa9a75d522b39400f60208201529081019290925260608201524660808201523060a08201525f9060c00160405160208183030381529060405280519060200120905090565b60805250503060c052600380546001600160a01b039384166001600160a01b0319918216179091556004805492909316911617905561045c565b5f80546001600160a01b038381166001600160a01b0319831681178455604051919092169283917f8be0079c531659141344cd1fd0a4f28419497f9722a3daafe3b4186f6b6457e09190a35050565b5f60208351101561020d5761020683610224565b905061021e565b816102188482610345565b5060ff90505b92915050565b5f80829050601f8151111561024e578260405163305a27a960e01b815260040161008c9190610404565b805161025982610439565b179392505050565b80516001600160a01b0381168114610277575f80fd5b919050565b5f806040838503121561028d575f80fd5b61029683610261565b91506102a460208401610261565b90509250929050565b634e487b7160e01b5f52604160045260245ffd5b600181811c908216806102d557607f821691505b6020821081036102f357634e487b7160e01b5f52602260045260245ffd5b50919050565b601f82111561034057805f5260205f20601f840160051c8101602085101561031e5750805b601f840160051c820191505b8181101561033d575f815560010161032a565b50505b505050565b81516001600160401b0381111561035e5761035e6102ad565b6103728161036c84546102c1565b846102f9565b602080601f8311600181146103a5575f841561038e5750858301515b5f19600386901b1c1916600185901b1785556103fc565b5f85815260208120601f198616915b828110156103d3578886015182559484019460019091019084016103b4565b50858210156103f057878501515f19600388901b60f8161c191681555b505060018460011b0185555b505050505050565b602081525f82518060208401528060208501604085015e5f604082850101526040601f19601f83011684010191505092915050565b805160208083015191908110156102f3575f1960209190910360031b1b16919050565b60805160a05160c05160e0516101005161012051610140516126a861049e5f395f61204901525f61201701525f50505f50505f50505f50505f50506126a85ff3fe60806040526004361061017e575f3560e01c806381257bd5116100cd578063af94a1d111610087578063dfa49e6f11610062578063dfa49e6f14610504578063f0f4426014610530578063f2fde38b1461054f578063f613cbb41461056e575f80fd5b8063af94a1d114610407578063b6f45f1114610490578063de74e57b146104af575f80fd5b806381257bd51461035e57806384b0196e1461037d5780638da5cb5b146103a457806397491d6f146103c05780639a9e6bb5146103df5780639eaa1b09146103f2575f80fd5b80633fd773e911610138578063539aa77f11610113578063539aa77f146102f857806361d027b31461030c578063652bd29e1461032b578063715018a61461034a575f80fd5b80633fd773e91461025357806349c657db1461028a5780634d03a9a5146102ad575f80fd5b806305b7cdd314610189578063107a274a1461019e5780631f4db66d146101d357806329133e60146101e6578063293cb7171461021557806333d8950d14610234575f80fd5b3661018557005b5f80fd5b61019c6101973660046121ad565b610581565b005b3480156101a9575f80fd5b506101bd6101b83660046121cd565b61070c565b6040516101ca91906121e4565b60405180910390f35b61019c6101e1366004612224565b6107a0565b3480156101f1575f80fd5b506102056102003660046121cd565b610b33565b60405190151581526020016101ca565b348015610220575f80fd5b5061019c61022f366004612299565b610b73565b34801561023f575f80fd5b5061019c61024e3660046122d6565b610e67565b34801561025e575f80fd5b50600354610272906001600160a01b031681565b6040516001600160a01b0390911681526020016101ca565b348015610295575f80fd5b5061029f6101f481565b6040519081526020016101ca565b3480156102b8575f80fd5b506102cc6102c73660046121ad565b610e91565b604080516001600160a01b039095168552602085019390935291830152151560608201526080016101ca565b348015610303575f80fd5b5061029f60fa81565b348015610317575f80fd5b50600454610272906001600160a01b031681565b348015610336575f80fd5b506101bd6103453660046121cd565b610ee0565b348015610355575f80fd5b5061019c610f74565b348015610369575f80fd5b5061019c6103783660046121ad565b610f87565b348015610388575f80fd5b5061039161138d565b6040516101ca979695949392919061231f565b3480156103af575f80fd5b505f546001600160a01b0316610272565b3480156103cb575f80fd5b5061019c6103da3660046121cd565b6113cf565b61019c6103ed3660046121ad565b611583565b3480156103fd575f80fd5b5061029f61271081565b348015610412575f80fd5b5061045c6104213660046121cd565b60066020525f9081526040902080546001820154600283015460038401546004909401546001600160a01b0390931693919290919060ff1685565b604080516001600160a01b03909616865260208601949094529284019190915260608301521515608082015260a0016101ca565b34801561049b575f80fd5b5061019c6104aa3660046121cd565b611985565b3480156104ba575f80fd5b5061045c6104c93660046121cd565b60056020525f9081526040902080546001820154600283015460038401546004909401546001600160a01b0390931693919290919060ff1685565b34801561050f575f80fd5b5061052361051e3660046121cd565b611a78565b6040516101ca91906123b6565b34801561053b575f80fd5b5061019c61054a3660046122d6565b611b16565b34801561055a575f80fd5b5061019c6105693660046122d6565b611b40565b61029f61057c366004612224565b611b7d565b610589611f7a565b5f34116105dd5760405162461bcd60e51b815260206004820152601760248201527f4d61726b6574706c6163653a205a65726f206f6666657200000000000000000060448201526064015b60405180910390fd5b42811161062c5760405162461bcd60e51b815260206004820152601a60248201527f4d61726b6574706c6163653a204f66666572206578706972656400000000000060448201526064016105d4565b5f8281526007602090815260408083208151608081018352338082523482860181815283860189815260016060860181815287548083018955978b52998990209551600490970290950180546001600160a01b0319166001600160a01b039097169690961786559051938501939093559151600284015594516003909201805460ff191692151592909217909155815190815291820184905284917fd7df0c72641d362ea57ecc9cab99c77f936e36bb826f096258c3404196b26d6a910160405180910390a361070860015f8051602061265383398151915255565b5050565b6107446040518060a001604052805f6001600160a01b031681526020015f81526020015f81526020015f81526020015f151581525090565b505f90815260056020908152604091829020825160a08101845281546001600160a01b031681526001820154928101929092526002810154928201929092526003820154606082015260049091015460ff161515608082015290565b6107a8611f7a565b5f838152600560205260409020600481015460ff1680156107cc57505f8160010154115b6108185760405162461bcd60e51b815260206004820152601960248201527f4d61726b6574706c6163653a204e6f7420666f722073616c650000000000000060448201526064016105d4565b80600101543410156108765760405162461bcd60e51b815260206004820152602160248201527f4d61726b6574706c6163653a20496e73756666696369656e74207061796d656e6044820152601d60fa1b60648201526084016105d4565b8054600182015460048301805460ff191690556001600160a01b03909116905f6127106108a460fa84612438565b6108ae919061244f565b90505f6127106108c06101f485612438565b6108ca919061244f565b60035460405163caa47fbf60e01b8152600481018b90529192505f916001600160a01b039091169063caa47fbf90602401602060405180830381865afa158015610916573d5f803e3d5ffd5b505050506040513d601f19601f8201168201806040525081019061093a919061246e565b9050846001600160a01b0316816001600160a01b031603610959575f91505b5f826109658587612489565b61096f9190612489565b905060035f9054906101000a90046001600160a01b03166001600160a01b0316632bbd478f87338d8d8d60405180602001604052805f8152506040518763ffffffff1660e01b81526004016109c9969594939291906124c4565b5f604051808303815f87803b1580156109e0575f80fd5b505af11580156109f2573d5f803e3d5ffd5b50506004546040516001600160a01b03909116925086156108fc02915086905f818181858888f19350505050158015610a2d573d5f803e3d5ffd5b508215610a69576040516001600160a01b0383169084156108fc029085905f818181858888f19350505050158015610a67573d5f803e3d5ffd5b505b6040516001600160a01b0387169082156108fc029083905f818181858888f19350505050158015610a9c573d5f803e3d5ffd5b5084341115610ada57336108fc610ab38734612489565b6040518115909202915f818181858888f19350505050158015610ad8573d5f803e3d5ffd5b505b60405185815233908b907fc7033c1497cdc2dfb1e94c590e8f91815f9cce88da260ebcd7828295e90d2d439060200160405180910390a350505050505050610b2e60015f8051602061265383398151915255565b505050565b5f818152600660205260408120600481015460ff16610b555750600192915050565b80600201548160010154610b699190612516565b4210159392505050565b6003546040516331a9108f60e11b81526004810185905233916001600160a01b031690636352211e90602401602060405180830381865afa158015610bba573d5f803e3d5ffd5b505050506040513d601f19601f82011682018060405250810190610bde919061246e565b6001600160a01b031614610c045760405162461bcd60e51b81526004016105d490612529565b5f821180610c1157505f81115b610c705760405162461bcd60e51b815260206004820152602a60248201527f4d61726b6574706c6163653a204d75737420736574207072696365206f722072604482015269656e74616c207261746560b01b60648201526084016105d4565b60035460405163e985e9c560e01b81523360048201523060248201526001600160a01b039091169063e985e9c590604401602060405180830381865afa158015610cbc573d5f803e3d5ffd5b505050506040513d601f19601f82011682018060405250810190610ce09190612559565b80610d5c575060035460405163020604bf60e21b81526004810185905230916001600160a01b03169063081812fc90602401602060405180830381865afa158015610d2d573d5f803e3d5ffd5b505050506040513d601f19601f82011682018060405250810190610d51919061246e565b6001600160a01b0316145b610da85760405162461bcd60e51b815260206004820152601960248201527f4d61726b6574706c6163653a204e6f7420617070726f7665640000000000000060448201526064016105d4565b6040805160a0810182523380825260208083018681528385018681525f606086018181526001608088018181528c84526005875292899020975188546001600160a01b0319166001600160a01b039091161788559351938701939093559051600286015590516003850155516004909301805460ff19169315159390931790925582518581529182018490529185917ff629ac5cd8a6e6712e8120fc14aa8fd1462a486be943f4a941d15fc5b981e84d910160405180910390a3505050565b610e6f611f95565b600380546001600160a01b0319166001600160a01b0392909216919091179055565b6007602052815f5260405f208181548110610eaa575f80fd5b5f91825260209091206004909102018054600182015460028301546003909301546001600160a01b039092169450925060ff1684565b610f186040518060a001604052805f6001600160a01b031681526020015f81526020015f81526020015f81526020015f151581525090565b505f90815260066020908152604091829020825160a08101845281546001600160a01b031681526001820154928101929092526002810154928201929092526003820154606082015260049091015460ff161515608082015290565b610f7c611f95565b610f855f611fc1565b565b610f8f611f7a565b6003546040516331a9108f60e11b81526004810184905233916001600160a01b031690636352211e90602401602060405180830381865afa158015610fd6573d5f803e3d5ffd5b505050506040513d601f19601f82011682018060405250810190610ffa919061246e565b6001600160a01b0316146110205760405162461bcd60e51b81526004016105d490612529565b5f82815260076020526040812080548390811061103f5761103f612578565b5f9182526020909120600490910201600381015490915060ff166110a55760405162461bcd60e51b815260206004820152601d60248201527f4d61726b6574706c6163653a204f66666572206e6f742061637469766500000060448201526064016105d4565b80600201544211156110f95760405162461bcd60e51b815260206004820152601a60248201527f4d61726b6574706c6163653a204f66666572206578706972656400000000000060448201526064016105d4565b60038101805460ff19169055600181015481546001600160a01b03165f61271061112460fa85612438565b61112e919061244f565b90505f6127106111406101f486612438565b61114a919061244f565b60035460405163caa47fbf60e01b8152600481018a90529192505f916001600160a01b039091169063caa47fbf90602401602060405180830381865afa158015611196573d5f803e3d5ffd5b505050506040513d601f19601f820116820180604052508101906111ba919061246e565b9050336001600160a01b038216036111d0575f91505b6003546040516323b872dd60e01b81523360048201526001600160a01b038681166024830152604482018b9052909116906323b872dd906064015f604051808303815f87803b158015611221575f80fd5b505af1158015611233573d5f803e3d5ffd5b50506004546040516001600160a01b03909116925085156108fc02915085905f818181858888f1935050505015801561126e573d5f803e3d5ffd5b5081156112aa576040516001600160a01b0382169083156108fc029084905f818181858888f193505050501580156112a8573d5f803e3d5ffd5b505b336108fc836112b98689612489565b6112c39190612489565b6040518115909202915f818181858888f193505050501580156112e8573d5f803e3d5ffd5b50836001600160a01b0316887fea555ab99331ceac5051c58f17cc7b411b30241b0e28cb93a7d3a24c77a7a9a98760405161132591815260200190565b60405180910390a3836001600160a01b0316887fc7033c1497cdc2dfb1e94c590e8f91815f9cce88da260ebcd7828295e90d2d438760405161136991815260200190565b60405180910390a350505050505061070860015f8051602061265383398151915255565b5f6060805f805f606061139e612010565b6113a6612042565b604080515f80825260208201909252600f60f81b9b939a50919850469750309650945092509050565b5f818152600660205260409020600481015460ff166114305760405162461bcd60e51b815260206004820152601d60248201527f4d61726b6574706c6163653a204e6f206163746976652072656e74616c00000060448201526064016105d4565b80546001600160a01b03163314806114c357506003546040516331a9108f60e11b8152600481018490526001600160a01b0390911690636352211e90602401602060405180830381865afa15801561148a573d5f803e3d5ffd5b505050506040513d601f19601f820116820180604052508101906114ae919061246e565b6001600160a01b0316336001600160a01b0316145b806114e15750806002015481600101546114dd9190612516565b4210155b6115385760405162461bcd60e51b815260206004820152602260248201527f4d61726b6574706c6163653a2043616e6e6f7420656e642072656e74616c2079604482015261195d60f21b60648201526084016105d4565b805460048201805460ff191690556040516001600160a01b0390911690819084907ff9bbd47d9659083aa5b016ffd346aca413549aace523513f610200aeed1e1dd4905f90a3505050565b61158b611f7a565b5f828152600560205260409020600481015460ff1680156115af57505f8160020154115b6115fb5760405162461bcd60e51b815260206004820152601960248201527f4d61726b6574706c6163653a204e6f7420666f722072656e740000000000000060448201526064016105d4565b5f8381526006602052604090206004015460ff161561165c5760405162461bcd60e51b815260206004820152601b60248201527f4d61726b6574706c6163653a20416c72656164792072656e746564000000000060448201526064016105d4565b5f8211801561166d57506102d08211155b6116b95760405162461bcd60e51b815260206004820152601d60248201527f4d61726b6574706c6163653a20496e76616c6964206475726174696f6e00000060448201526064016105d4565b5f8282600201546116ca9190612438565b90508034101561172d5760405162461bcd60e51b815260206004820152602860248201527f4d61726b6574706c6163653a20496e73756666696369656e742072656e74616c604482015267081c185e5b595b9d60c21b60648201526084016105d4565b6040805160a08101825233815242602082015290810161174f85610e10612438565b81526020808201849052600160409283018190525f888152600680845290849020855181546001600160a01b0319166001600160a01b0391821617825586850151938201939093558585015160028201556060808701516003808401919091556080978801516004909301805460ff1916931515939093179092559054855194850186905290840191909152651c995b9d185b60d21b838601528284018890528351808403909501855260a0830193849052637b297a6f60e01b9093529190911691637b297a6f9161182891889133919060a40161258c565b5f604051808303815f87803b15801561183f575f80fd5b505af1158015611851573d5f803e3d5ffd5b505050505f61271060fa836118669190612438565b611870919061244f565b83549091506001600160a01b03166108fc61188b8385612489565b6040518115909202915f818181858888f193505050501580156118b0573d5f803e3d5ffd5b506004546040516001600160a01b039091169082156108fc029083905f818181858888f193505050501580156118e8573d5f803e3d5ffd5b508134111561192657336108fc6118ff8434612489565b6040518115909202915f818181858888f19350505050158015611924573d5f803e3d5ffd5b505b33857f1bcea300e852eb62fe74ae629da22c0f2fe0e266683d6a61be7b3c1327f6403661195587610e10612438565b60408051918252602082018790520160405180910390a350505061070860015f8051602061265383398151915255565b6003546040516331a9108f60e11b81526004810183905233916001600160a01b031690636352211e90602401602060405180830381865afa1580156119cc573d5f803e3d5ffd5b505050506040513d601f19601f820116820180604052508101906119f0919061246e565b6001600160a01b03161480611a1a57505f818152600560205260409020546001600160a01b031633145b611a365760405162461bcd60e51b81526004016105d490612529565b5f81815260056020526040808220600401805460ff191690555182917fcc18e72ea7b8b07ea76fb0cf32c03866d076aed44dd46a65ca281deda6126a1091a250565b606060075f8381526020019081526020015f20805480602002602001604051908101604052809291908181526020015f905b82821015611b0b575f848152602090819020604080516080810182526004860290920180546001600160a01b03168352600180820154848601526002820154928401929092526003015460ff16151560608301529083529092019101611aaa565b505050509050919050565b611b1e611f95565b600480546001600160a01b0319166001600160a01b0392909216919091179055565b611b48611f95565b6001600160a01b038116611b7157604051631e4fbdf760e01b81525f60048201526024016105d4565b611b7a81611fc1565b50565b5f611b86611f7a565b60035460405163a33d936360e01b8152600481018690525f916001600160a01b03169063a33d936390602401602060405180830381865afa158015611bcd573d5f803e3d5ffd5b505050506040513d601f19601f82011682018060405250810190611bf191906125be565b90505f8111611c425760405162461bcd60e51b815260206004820181905260248201527f4d61726b6574706c6163653a204167656e74206e6f7420636c6f6e6561626c6560448201526064016105d4565b80341015611c9e5760405162461bcd60e51b815260206004820152602360248201527f4d61726b6574706c6163653a20496e73756666696369656e7420636c6f6e652060448201526266656560e81b60648201526084016105d4565b5f612710611cad60fa84612438565b611cb7919061244f565b90505f612710611cc96101f485612438565b611cd3919061244f565b60035460405163caa47fbf60e01b8152600481018a90529192505f916001600160a01b039091169063caa47fbf90602401602060405180830381865afa158015611d1f573d5f803e3d5ffd5b505050506040513d601f19601f82011682018060405250810190611d43919061246e565b6003546040516331a9108f60e11b8152600481018b90529192505f916001600160a01b0390911690636352211e90602401602060405180830381865afa158015611d8f573d5f803e3d5ffd5b505050506040513d601f19601f82011682018060405250810190611db3919061246e565b600354604080516020810182525f8152905163dfd177d360e01b81529293506001600160a01b039091169163dfd177d391611df89133918e918e918e916004016125d5565b6020604051808303815f875af1158015611e14573d5f803e3d5ffd5b505050506040513d601f19601f82011682018060405250810190611e3891906125be565b6004546040519197506001600160a01b03169085156108fc029086905f818181858888f19350505050158015611e70573d5f803e3d5ffd5b506040516001600160a01b0383169084156108fc029085905f818181858888f19350505050158015611ea4573d5f803e3d5ffd5b506001600160a01b0381166108fc84611ebd8789612489565b611ec79190612489565b6040518115909202915f818181858888f19350505050158015611eec573d5f803e3d5ffd5b5084341115611f2a57336108fc611f038734612489565b6040518115909202915f818181858888f19350505050158015611f28573d5f803e3d5ffd5b505b604051339087908b907fafcb997b9dbf5ea2fdb1c69190293b8b3ad9fc98b62f467832a4a7bf050fc79d905f90a45050505050611f7360015f8051602061265383398151915255565b9392505050565b611f8261206f565b60025f8051602061265383398151915255565b5f546001600160a01b03163314610f855760405163118cdaa760e01b81523360048201526024016105d4565b5f80546001600160a01b038381166001600160a01b0319831681178455604051919092169283917f8be0079c531659141344cd1fd0a4f28419497f9722a3daafe3b4186f6b6457e09190a35050565b606061203d7f0000000000000000000000000000000000000000000000000000000000000000600161209e565b905090565b606061203d7f0000000000000000000000000000000000000000000000000000000000000000600261209e565b5f8051602061265383398151915254600203610f8557604051633ee5aeb560e01b815260040160405180910390fd5b606060ff83146120b8576120b183612149565b9050612143565b8180546120c49061261a565b80601f01602080910402602001604051908101604052809291908181526020018280546120f09061261a565b801561213b5780601f106121125761010080835404028352916020019161213b565b820191905f5260205f20905b81548152906001019060200180831161211e57829003601f168201915b505050505090505b92915050565b60605f61215583612186565b6040805160208082528183019092529192505f91906020820181803683375050509182525060208101929092525090565b5f60ff8216601f81111561214357604051632cd44ac360e21b815260040160405180910390fd5b5f80604083850312156121be575f80fd5b50508035926020909101359150565b5f602082840312156121dd575f80fd5b5035919050565b81516001600160a01b0316815260208083015190820152604080830151908201526060808301519082015260808083015115159082015260a08101612143565b5f805f60408486031215612236575f80fd5b83359250602084013567ffffffffffffffff80821115612254575f80fd5b818601915086601f830112612267575f80fd5b813581811115612275575f80fd5b876020828501011115612286575f80fd5b6020830194508093505050509250925092565b5f805f606084860312156122ab575f80fd5b505081359360208301359350604090920135919050565b6001600160a01b0381168114611b7a575f80fd5b5f602082840312156122e6575f80fd5b8135611f73816122c2565b5f81518084528060208401602086015e5f602082860101526020601f19601f83011685010191505092915050565b60ff60f81b881681525f602060e0602084015261233f60e084018a6122f1565b8381036040850152612351818a6122f1565b606085018990526001600160a01b038816608086015260a0850187905284810360c0860152855180825260208088019350909101905f5b818110156123a457835183529284019291840191600101612388565b50909c9b505050505050505050505050565b602080825282518282018190525f919060409081850190868401855b8281101561241757815180516001600160a01b0316855286810151878601528581015186860152606090810151151590850152608090930192908501906001016123d2565b5091979650505050505050565b634e487b7160e01b5f52601160045260245ffd5b808202811582820484141761214357612143612424565b5f8261246957634e487b7160e01b5f52601260045260245ffd5b500490565b5f6020828403121561247e575f80fd5b8151611f73816122c2565b8181038181111561214357612143612424565b81835281816020850137505f828201602090810191909152601f909101601f19169091010190565b6001600160a01b038781168252861660208201526040810185905260a0606082018190525f906124f7908301858761249c565b828103608084015261250981856122f1565b9998505050505050505050565b8082018082111561214357612143612424565b60208082526016908201527526b0b935b2ba383630b1b29d102737ba1037bbb732b960511b604082015260600190565b5f60208284031215612569575f80fd5b81518015158114611f73575f80fd5b634e487b7160e01b5f52603260045260245ffd5b8381526001600160a01b03831660208201526060604082018190525f906125b5908301846122f1565b95945050505050565b5f602082840312156125ce575f80fd5b5051919050565b60018060a01b0386168152846020820152608060408201525f6125fc60808301858761249c565b828103606084015261260e81856122f1565b98975050505050505050565b600181811c9082168061262e57607f821691505b60208210810361264c57634e487b7160e01b5f52602260045260245ffd5b5091905056fe9b779b17422d0df92223018b32b4d1fa46e071723d6817e2486d003becc55f00a26469706673582212208e61426d8c1c56083ab9739b4844a5c4e3532ea34b24778e6e3b221b0d0aa39e64736f6c63430008190033",
  "linkReferences": {},
  "deployedLinkReferences": {}
}