{
  "_format": "hh-sol-artifact-1",
  "contractName": "PostRegistry",
  "sourceName": "contracts/PostRegistry.sol",
  "abi": [
    {
      "inputs": [
        {
          "internalType": "address",
          "name": "_agentNFT",
          "type": "address"
        },
        {
          "internalType": "address",
          "name": "_socialGraph",
          "type": "address"
        }
      ],
      "stateMutability": "nonpayable",
      "type": "constructor"
    },
    {
      "inputs": [
        {
          "internalType": "address",
          "name": "owner",
          "type": "address"
        }
      ],
      "name": "OwnableInvalidOwner",
      "type": "error"
    },
    {
      "inputs": [
        {
          "internalType": "address",
          "name": "account",
          "type": "address"
        }
      ],
      "name": "OwnableUnauthorizedAccount",
      "type": "error"
    },
    {
      "inputs": [],
      "name": "ReentrancyGuardReentrantCall",
      "type": "error"
    },
    {
      "anonymous": false,
      "inputs": [
        {
          "indexed": true,
          "internalType": "address",
          "name": "previousOwner",
          "type": "address"
        },
        {
          "indexed": true,
          "internalType": "address",
          "name": "newOwner",
          "type": "address"
        }
      ],
      "name": "OwnershipTransferred",
      "type": "event"
    },
    {
      "anonymous": false,
      "inputs": [
        {
          "indexed": true,
          "internalType": "uint256",
          "name": "postId",
          "type": "uint256"
        },
        {
          "indexed": true,
          "internalType": "uint256",
          "name": "agentTokenId",
          "type": "uint256"
        },
        {
          "indexed": false,
          "internalType": "bytes32",
          "name": "storageRootHash",
          "type": "bytes32"
        },
        {
          "indexed": false,
          "internalType": "uint256",
          "name": "parentPostId",
          "type": "uint256"
        },
        {
          "indexed": false,
          "internalType": "address",
          "name": "author",
          "type": "address"
        },
        {
          "indexed": false,
          "internalType": "uint256",
          "name": "timestamp",
          "type": "uint256"
        }
      ],
      "name": "PostCreated",
      "type": "event"
    },
    {
      "anonymous": false,
      "inputs": [
        {
          "indexed": true,
          "internalType": "uint256",
          "name": "postId",
          "type": "uint256"
        },
        {
          "indexed": true,
          "internalType": "uint256",
          "name": "agentTokenId",
          "type": "uint256"
        },
        {
          "indexed": false,
          "internalType": "address",
          "name": "reactor",
          "type": "address"
        },
        {
          "indexed": false,
          "internalType": "uint8",
          "name": "reactionType",
          "type": "uint8"
        }
      ],
      "name": "Reacted",
      "type": "event"
    },
    {
      "anonymous": false,
      "inputs": [
        {
          "indexed": true,
          "internalType": "uint256",
          "name": "postId",
          "type": "uint256"
        },
        {
          "indexed": true,
          "internalType": "address",
          "name": "tipper",
          "type": "address"
        },
        {
          "indexed": false,
          "internalType": "address",
          "name": "recipient",
          "type": "address"
        },
        {
          "indexed": false,
          "internalType": "uint256",
          "name": "amount",
          "type": "uint256"
        }
      ],
      "name": "Tipped",
      "type": "event"
    },
    {
      "inputs": [],
      "name": "REACT_DOWNVOTE",
      "outputs": [
        {
          "internalType": "uint8",
          "name": "",
          "type": "uint8"
        }
      ],
      "stateMutability": "view",
      "type": "function"
    },
    {
      "inputs": [],
      "name": "REACT_FIRE",
      "outputs": [
        {
          "internalType": "uint8",
          "name": "",
          "type": "uint8"
        }
      ],
      "stateMutability": "view",
      "type": "function"
    },
    {
      "inputs": [],
      "name": "REACT_UPVOTE",
      "outputs": [
        {
          "internalType": "uint8",
          "name": "",
          "type": "uint8"
        }
      ],
      "stateMutability": "view",
      "type": "function"
    },
    {
      "inputs": [],
      "name": "agentNFT",
      "outputs": [
        {
          "internalType": "contract IAgentNFT",
          "name": "",
          "type": "address"
        }
      ],
      "stateMutability": "view",
      "type": "function"
    },
    {
      "inputs": [
        {
          "internalType": "uint256",
          "name": "",
          "type": "uint256"
        },
        {
          "internalType": "uint256",
          "name": "",
          "type": "uint256"
        }
      ],
      "name": "agentPosts",
      "outputs": [
        {
          "internalType": "uint256",
          "name": "",
          "type": "uint256"
        }
      ],
      "stateMutability": "view",
      "type": "function"
    },
    {
      "inputs": [
        {
          "internalType": "uint256",
          "name": "agentTokenId",
          "type": "uint256"
        },
        {
          "internalType": "bytes32",
          "name": "storageRootHash",
          "type": "bytes32"
        },
        {
          "internalType": "uint256",
          "name": "parentPostId",
          "type": "uint256"
        }
      ],
      "name": "createPost",
      "outputs": [
        {
          "internalType": "uint256",
          "name": "postId",
          "type": "uint256"
        }
      ],
      "stateMutability": "nonpayable",
      "type": "function"
    },
    {
      "inputs": [
        {
          "internalType": "uint256",
          "name": "agentTokenId",
          "type": "uint256"
        }
      ],
      "name": "getAgentPosts",
      "outputs": [
        {
          "internalType": "uint256[]",
          "name": "",
          "type": "uint256[]"
        }
      ],
      "stateMutability": "view",
      "type": "function"
    },
    {
      "inputs": [
        {
          "internalType": "uint256",
          "name": "postId",
          "type": "uint256"
        }
      ],
      "name": "getPost",
      "outputs": [
        {
          "components": [
            {
              "internalType": "uint256",
              "name": "agentTokenId",
              "type": "uint256"
            },
            {
              "internalType": "bytes32",
              "name": "storageRootHash",
              "type": "bytes32"
            },
            {
              "internalType": "uint256",
              "name": "parentPostId",
              "type": "uint256"
            },
            {
              "internalType": "address",
              "name": "author",
              "type": "address"
            },
            {
              "internalType": "uint256",
              "name": "timestamp",
              "type": "uint256"
            },
            {
              "internalType": "uint256",
              "name": "tipTotal",
              "type": "uint256"
            },
            {
              "internalType": "bool",
              "name": "exists",
              "type": "bool"
            }
          ],
          "internalType": "struct PostRegistry.Post",
          "name": "",
          "type": "tuple"
        }
      ],
      "stateMutability": "view",
      "type": "function"
    },
    {
      "inputs": [
        {
          "internalType": "uint256",
          "name": "postId",
          "type": "uint256"
        }
      ],
      "name": "getReactions",
      "outputs": [
        {
          "internalType": "uint256",
          "name": "upvotes",
          "type": "uint256"
        },
        {
          "internalType": "uint256",
          "name": "fires",
          "type": "uint256"
        },
        {
          "internalType": "uint256",
          "name": "downvotes",
          "type": "uint256"
        }
      ],
      "stateMutability": "view",
      "type": "function"
    },
    {
      "inputs": [
        {
          "internalType": "uint256",
          "name": "count",
          "type": "uint256"
        }
      ],
      "name": "getRecentPosts",
      "outputs": [
        {
          "internalType": "uint256[]",
          "name": "postIds",
          "type": "uint256[]"
        }
      ],
      "stateMutability": "view",
      "type": "function"
    },
    {
      "inputs": [],
      "name": "getTotalPosts",
      "outputs": [
        {
          "internalType": "uint256",
          "name": "",
          "type": "uint256"
        }
      ],
      "stateMutability": "view",
      "type": "function"
    },
    {
      "inputs": [
        {
          "internalType": "uint256",
          "name": "",
          "type": "uint256"
        },
        {
          "internalType": "address",
          "name": "",
          "type": "address"
        }
      ],
      "name": "hasReacted",
      "outputs": [
        {
          "internalType": "bool",
          "name": "",
          "type": "bool"
        }
      ],
      "stateMutability": "view",
      "type": "function"
    },
    {
      "inputs": [],
      "name": "owner",
      "outputs": [
        {
          "internalType": "address",
          "name": "",
          "type": "address"
        }
      ],
      "stateMutability": "view",
      "type": "function"
    },
    {
      "inputs": [
        {
          "internalType": "uint256",
          "name": "",
          "type": "uint256"
        }
      ],
      "name": "posts",
      "outputs": [
        {
          "internalType": "uint256",
          "name": "agentTokenId",
          "type": "uint256"
        },
        {
          "internalType": "bytes32",
          "name": "storageRootHash",
          "type": "bytes32"
        },
        {
          "internalType": "uint256",
          "name": "parentPostId",
          "type": "uint256"
        },
        {
          "internalType": "address",
          "name": "author",
          "type": "address"
        },
        {
          "internalType": "uint256",
          "name": "timestamp",
          "type": "uint256"
        },
        {
          "internalType": "uint256",
          "name": "tipTotal",
          "type": "uint256"
        },
        {
          "internalType": "bool",
          "name": "exists",
          "type": "bool"
        }
      ],
      "stateMutability": "view",
      "type": "function"
    },
    {
      "inputs": [
        {
          "internalType": "uint256",
          "name": "postId",
          "type": "uint256"
        },
        {
          "internalType": "uint8",
          "name": "reactionType",
          "type": "uint8"
        }
      ],
      "name": "react",
      "outputs": [],
      "stateMutability": "nonpayable",
      "type": "function"
    },
    {
      "inputs": [
        {
          "internalType": "uint256",
          "name": "",
          "type": "uint256"
        },
        {
          "internalType": "uint8",
          "name": "",
          "type": "uint8"
        }
      ],
      "name": "reactions",
      "outputs": [
        {
          "internalType": "uint256",
          "name": "",
          "type": "uint256"
        }
      ],
      "stateMutability": "view",
      "type": "function"
    },
    {
      "inputs": [],
      "name": "renounceOwnership",
      "outputs": [],
      "stateMutability": "nonpayable",
      "type": "function"
    },
    {
      "inputs": [
        {
          "internalType": "address",
          "name": "_agentNFT",
          "type": "address"
        }
      ],
      "name": "setAgentNFT",
      "outputs": [],
      "stateMutability": "nonpayable",
      "type": "function"
    },
    {
      "inputs": [
        {
          "internalType": "address",
          "name": "_socialGraph",
          "type": "address"
        }
      ],
      "name": "setSocialGraph",
      "outputs": [],
      "stateMutability": "nonpayable",
      "type": "function"
    },
    {
      "inputs": [],
      "name": "socialGraph",
      "outputs": [
        {
          "internalType": "contract ISocialGraph",
          "name": "",
          "type": "address"
        }
      ],
      "stateMutability": "view",
      "type": "function"
    },
    {
      "inputs": [
        {
          "internalType": "uint256",
          "name": "postId",
          "type": "uint256"
        }
      ],
      "name": "tip",
      "outputs": [],
      "stateMutability": "payable",
      "type": "function"
    },
    {
      "inputs": [
        {
          "internalType": "address",
          "name": "newOwner",
          "type": "address"
        }
      ],
      "name": "transferOwnership",
      "outputs": [],
      "stateMutability": "nonpayable",
      "type": "function"
    }
  ],
  "bytecode": "0x60806040526001600555348015610014575f80fd5b5060405161149c38038061149c83398101604081905261003391610121565b338061005857604051631e4fbdf760e01b81525f600482015260240160405180910390fd5b610061816100b7565b5060017f9b779b17422d0df92223018b32b4d1fa46e071723d6817e2486d003becc55f0055600680546001600160a01b039384166001600160a01b03199182161790915560078054929093169116179055610152565b5f80546001600160a01b038381166001600160a01b0319831681178455604051919092169283917f8be0079c531659141344cd1fd0a4f28419497f9722a3daafe3b4186f6b6457e09190a35050565b80516001600160a01b038116811461011c575f80fd5b919050565b5f8060408385031215610132575f80fd5b61013b83610106565b915061014960208401610106565b90509250929050565b61133d8061015f5f395ff3fe608060405260043610610131575f3560e01c80638d7b2bd1116100a8578063c83e955c1161006d578063c83e955c146104a5578063c9aa2876146104b9578063dc0d2223146104d8578063e8b69bc3146104f7578063f2fde38b1461050a578063f36540f714610529575f80fd5b80638d7b2bd1146103e15780638da5cb5b1461040d578063945b2ebc14610429578063b2d0aca31461043d578063c66a7ca714610486575f80fd5b806350e6521e116100f957806350e6521e146102d35780635d6d949e146102f25780635fe226b4146103365780636219ad0b1461034a578063715018a6146103ae5780638ae50590146103c2575f80fd5b806306c3fafc146101355780630b1e7f831461015f57806333d8950d146102005780633fd773e91461022157806340731c2414610258575b5f80fd5b348015610140575f80fd5b506101485f81565b60405160ff90911681526020015b60405180910390f35b34801561016a575f80fd5b506101c16101793660046110ce565b600160208190525f91825260409091208054918101546002820154600383015460048401546005850154600690950154939492936001600160a01b0390921692909160ff1687565b604080519788526020880196909652948601939093526001600160a01b039091166060850152608084015260a0830152151560c082015260e001610156565b34801561020b575f80fd5b5061021f61021a3660046110f9565b610548565b005b34801561022c575f80fd5b50600654610240906001600160a01b031681565b6040516001600160a01b039091168152602001610156565b348015610263575f80fd5b506102776102723660046110ce565b610572565b60405161015691908151815260208083015190820152604080830151908201526060808301516001600160a01b0316908201526080808301519082015260a0808301519082015260c09182015115159181019190915260e00190565b3480156102de575f80fd5b50600754610240906001600160a01b031681565b3480156102fd575f80fd5b5061032861030c366004611114565b600260209081525f928352604080842090915290825290205481565b604051908152602001610156565b348015610341575f80fd5b50610328610652565b348015610355575f80fd5b506103936103643660046110ce565b5f9081526002602081815260408084208480529091528083205460018452818420549284529220549192909190565b60408051938452602084019290925290820152606001610156565b3480156103b9575f80fd5b5061021f610667565b3480156103cd575f80fd5b5061021f6103dc3660046110f9565b61067a565b3480156103ec575f80fd5b506104006103fb3660046110ce565b6106a4565b6040516101569190611147565b348015610418575f80fd5b505f546001600160a01b0316610240565b348015610434575f80fd5b50610148600181565b348015610448575f80fd5b5061047661045736600461118a565b600360209081525f928352604080842090915290825290205460ff1681565b6040519015158152602001610156565b348015610491575f80fd5b506104006104a03660046110ce565b610703565b3480156104b0575f80fd5b50610148600281565b3480156104c4575f80fd5b506103286104d33660046111ad565b6107af565b3480156104e3575f80fd5b5061021f6104f2366004611114565b610b35565b61021f6105053660046110ce565b610d1f565b348015610515575f80fd5b5061021f6105243660046110f9565b610fa4565b348015610534575f80fd5b506103286105433660046111d6565b610fde565b610550611009565b600680546001600160a01b0319166001600160a01b0392909216919091179055565b6040805160e0810182525f80825260208201819052918101829052606081018290526080810182905260a0810182905260c08101919091525f8281526001602052604090206006015460ff166105e35760405162461bcd60e51b81526004016105da906111f6565b60405180910390fd5b505f90815260016020818152604092839020835160e08101855281548152928101549183019190915260028101549282019290925260038201546001600160a01b0316606082015260048201546080820152600582015460a082015260069091015460ff16151560c082015290565b5f60016005546106629190611241565b905090565b61066f611009565b6106785f611035565b565b610682611009565b600780546001600160a01b0319166001600160a01b0392909216919091179055565b5f818152600460209081526040918290208054835181840281018401909452808452606093928301828280156106f757602002820191905f5260205f20905b8154815260200190600101908083116106e3575b50505050509050919050565b60605f60016005546107159190611241565b90505f8184116107255783610727565b815b90508067ffffffffffffffff8111156107425761074261125a565b60405190808252806020026020018201604052801561076b578160200160208202803683370190505b5092505f5b818110156107a7576107828184611241565b8482815181106107945761079461126e565b6020908102919091010152600101610770565b505050919050565b5f6107b8611084565b6006546040516331a9108f60e11b81526004810186905233916001600160a01b031690636352211e90602401602060405180830381865afa1580156107ff573d5f803e3d5ffd5b505050506040513d601f19601f820116820180604052508101906108239190611282565b6001600160a01b031614806108a4575060065460405163609c6d7f60e01b8152600481018690523360248201526001600160a01b039091169063609c6d7f90604401602060405180830381865afa158015610880573d5f803e3d5ffd5b505050506040513d601f19601f820116820180604052508101906108a4919061129d565b6108f05760405162461bcd60e51b815260206004820152601c60248201527f506f737452656769737472793a204e6f7420617574686f72697a65640000000060448201526064016105da565b8261093d5760405162461bcd60e51b815260206004820152601d60248201527f506f737452656769737472793a20456d70747920726f6f74206861736800000060448201526064016105da565b81158061095a57505f8281526001602052604090206006015460ff165b6109b75760405162461bcd60e51b815260206004820152602860248201527f506f737452656769737472793a20506172656e7420706f737420646f6573206e6044820152671bdd08195e1a5cdd60c21b60648201526084016105da565b60058054905f6109c6836112bc565b909155506040805160e0810182528681526020808201878152828401878152336060850190815242608086019081525f60a08701818152600160c089018181528b84528189528a842099518a559651898201559451600289015592516003880180546001600160a01b0319166001600160a01b0392831617905591516004808901919091559251600588015593516006909601805460ff1916961515969096179095558a8352808452858320805492830181558352929091200184905560075492516359adeb2d60e01b815290810188905292935016906359adeb2d906024015f604051808303815f87803b158015610abd575f80fd5b505af1925050508015610ace575060015b50604080518481526020810184905233818301524260608201529051859183917f2bd48ad58f309a57d8356e2a2ece2eec6443f27eb8273fbdf410d865afda890b9181900360800190a3610b2e60015f805160206112e883398151915255565b9392505050565b5f8281526001602052604090206006015460ff16610b655760405162461bcd60e51b81526004016105da906111f6565b60028160ff161115610bc55760405162461bcd60e51b815260206004820152602360248201527f506f737452656769737472793a20496e76616c6964207265616374696f6e207460448201526279706560e81b60648201526084016105da565b5f82815260036020908152604080832033845290915290205460ff1615610c2e5760405162461bcd60e51b815260206004820152601d60248201527f506f737452656769737472793a20416c7265616479207265616374656400000060448201526064016105da565b5f8281526003602090815260408083203384528252808320805460ff191660011790558483526002825280832060ff851684529091528120805491610c72836112bc565b90915550505f828152600160205260409081902054600754915163b4b834b160e01b81526004810182905290916001600160a01b03169063b4b834b1906024015f604051808303815f87803b158015610cc9575f80fd5b505af1925050508015610cda575060015b506040805133815260ff84166020820152829185917f756d255f7e38674ba0f6ac9a7d2142f3305d4ecea78af24e8db532d2b160d608910160405180910390a3505050565b610d27611084565b5f8181526001602052604090206006015460ff16610d575760405162461bcd60e51b81526004016105da906111f6565b5f3411610d9f5760405162461bcd60e51b81526020600482015260166024820152750506f737452656769737472793a205a65726f207469760541b60448201526064016105da565b5f81815260016020526040808220600654815492516331a9108f60e11b81529193926001600160a01b0390911691636352211e91610de39160040190815260200190565b602060405180830381865afa158015610dfe573d5f803e3d5ffd5b505050506040513d601f19601f82011682018060405250810190610e229190611282565b905034826005015f828254610e3791906112d4565b909155505060075482546040516381687e6760e01b815260048101919091523460248201526001600160a01b03909116906381687e67906044015f604051808303815f87803b158015610e88575f80fd5b505af1925050508015610e99575060015b505f816001600160a01b0316346040515f6040518083038185875af1925050503d805f8114610ee3576040519150601f19603f3d011682016040523d82523d5f602084013e610ee8565b606091505b5050905080610f435760405162461bcd60e51b815260206004820152602160248201527f506f737452656769737472793a20546970207472616e73666572206661696c656044820152601960fa1b60648201526084016105da565b604080516001600160a01b0384168152346020820152339186917fce094bbbb6144b00cddac7b300e0482127a8f4d3a1c16ff030afa0512b3059c5910160405180910390a3505050610fa160015f805160206112e883398151915255565b50565b610fac611009565b6001600160a01b038116610fd557604051631e4fbdf760e01b81525f60048201526024016105da565b610fa181611035565b6004602052815f5260405f208181548110610ff7575f80fd5b905f5260205f20015f91509150505481565b5f546001600160a01b031633146106785760405163118cdaa760e01b81523360048201526024016105da565b5f80546001600160a01b038381166001600160a01b0319831681178455604051919092169283917f8be0079c531659141344cd1fd0a4f28419497f9722a3daafe3b4186f6b6457e09190a35050565b61108c61109f565b60025f805160206112e883398151915255565b5f805160206112e88339815191525460020361067857604051633ee5aeb560e01b815260040160405180910390fd5b5f602082840312156110de575f80fd5b5035919050565b6001600160a01b0381168114610fa1575f80fd5b5f60208284031215611109575f80fd5b8135610b2e816110e5565b5f8060408385031215611125575f80fd5b82359150602083013560ff8116811461113c575f80fd5b809150509250929050565b602080825282518282018190525f9190848201906040850190845b8181101561117e57835183529284019291840191600101611162565b50909695505050505050565b5f806040838503121561119b575f80fd5b82359150602083013561113c816110e5565b5f805f606084860312156111bf575f80fd5b505081359360208301359350604090920135919050565b5f80604083850312156111e7575f80fd5b50508035926020909101359150565b6020808252601c908201527f506f737452656769737472793a20506f7374206e6f7420666f756e6400000000604082015260600190565b634e487b7160e01b5f52601160045260245ffd5b818103818111156112545761125461122d565b92915050565b634e487b7160e01b5f52604160045260245ffd5b634e487b7160e01b5f52603260045260245ffd5b5f60208284031215611292575f80fd5b8151610b2e816110e5565b5f602082840312156112ad575f80fd5b81518015158114610b2e575f80fd5b5f600182016112cd576112cd61122d565b5060010190565b808201808211156112545761125461122d56fe9b779b17422d0df92223018b32b4d1fa46e071723d6817e2486d003becc55f00a2646970667358221220e0615e841f1a081ff43aa26ea1c946625a9a7805e2f30a2e77ffe4acd2844bc764736f6c63430008190033",
  "linkReferences": {},
  "deployedLinkReferences": {}
}