{
  "_format": "hh-sol-artifact-1",
  "contractName": "SocialGraph",
  "sourceName": "contracts/SocialGraph.sol",
  "abi": [
    {
      "inputs": [],
      "stateMutability": "nonpayable",
      "type": "constructor"
    },
    {
      "inputs": [
        {
          "internalType": "address",
          "name": "owner",
          "type": "address"
        }
      ],
      "name": "OwnableInvalidOwner",
      "type": "error"
    },
    {
      "inputs": [
        {
          "internalType": "address",
          "name": "account",
          "type": "address"
        }
      ],
      "name": "OwnableUnauthorizedAccount",
      "type": "error"
    },
    {
      "inputs": [],
      "name": "ReentrancyGuardReentrantCall",
      "type": "error"
    },
    {
      "anonymous": false,
      "inputs": [
        {
          "indexed": true,
          "internalType": "uint256",
          "name": "follower",
          "type": "uint256"
        },
        {
          "indexed": true,
          "internalType": "uint256",
          "name": "target",
          "type": "uint256"
        },
        {
          "indexed": false,
          "internalType": "uint256",
          "name": "timestamp",
          "type": "uint256"
        }
      ],
      "name": "Followed",
      "type": "event"
    },
    {
      "anonymous": false,
      "inputs": [
        {
          "indexed": true,
          "internalType": "address",
          "name": "previousOwner",
          "type": "address"
        },
        {
          "indexed": true,
          "internalType": "address",
          "name": "newOwner",
          "type": "address"
        }
      ],
      "name": "OwnershipTransferred",
      "type": "event"
    },
    {
      "anonymous": false,
      "inputs": [
        {
          "indexed": true,
          "internalType": "uint256",
          "name": "agentId",
          "type": "uint256"
        },
        {
          "indexed": false,
          "internalType": "uint256",
          "name": "newScore",
          "type": "uint256"
        }
      ],
      "name": "ReputationUpdated",
      "type": "event"
    },
    {
      "anonymous": false,
      "inputs": [
        {
          "indexed": true,
          "internalType": "uint256",
          "name": "follower",
          "type": "uint256"
        },
        {
          "indexed": true,
          "internalType": "uint256",
          "name": "target",
          "type": "uint256"
        }
      ],
      "name": "Unfollowed",
      "type": "event"
    },
    {
      "inputs": [
        {
          "internalType": "uint256",
          "name": "agentId",
          "type": "uint256"
        },
        {
          "internalType": "uint256",
          "name": "amount",
          "type": "uint256"
        }
      ],
      "name": "addTipVolume",
      "outputs": [],
      "stateMutability": "nonpayable",
      "type": "function"
    },
    {
      "inputs": [
        {
          "internalType": "address",
          "name": "",
          "type": "address"
        }
      ],
      "name": "authorizedUpdaters",
      "outputs": [
        {
          "internalType": "bool",
          "name": "",
          "type": "bool"
        }
      ],
      "stateMutability": "view",
      "type": "function"
    },
    {
      "inputs": [
        {
          "internalType": "uint256",
          "name": "followerTokenId",
          "type": "uint256"
        },
        {
          "internalType": "uint256",
          "name": "targetTokenId",
          "type": "uint256"
        }
      ],
      "name": "follow",
      "outputs": [],
      "stateMutability": "nonpayable",
      "type": "function"
    },
    {
      "inputs": [
        {
          "internalType": "uint256",
          "name": "agentId",
          "type": "uint256"
        }
      ],
      "name": "getFollowerCount",
      "outputs": [
        {
          "internalType": "uint256",
          "name": "",
          "type": "uint256"
        }
      ],
      "stateMutability": "view",
      "type": "function"
    },
    {
      "inputs": [
        {
          "internalType": "uint256",
          "name": "agentId",
          "type": "uint256"
        }
      ],
      "name": "getFollowers",
      "outputs": [
        {
          "internalType": "uint256[]",
          "name": "",
          "type": "uint256[]"
        }
      ],
      "stateMutability": "view",
      "type": "function"
    },
    {
      "inputs": [
        {
          "internalType": "uint256",
          "name": "agentId",
          "type": "uint256"
        }
      ],
      "name": "getFollowing",
      "outputs": [
        {
          "internalType": "uint256[]",
          "name": "",
          "type": "uint256[]"
        }
      ],
      "stateMutability": "view",
      "type": "function"
    },
    {
      "inputs": [
        {
          "internalType": "uint256",
          "name": "agentId",
          "type": "uint256"
        }
      ],
      "name": "getFollowingCount",
      "outputs": [
        {
          "internalType": "uint256",
          "name": "",
          "type": "uint256"
        }
      ],
      "stateMutability": "view",
      "type": "function"
    },
    {
      "inputs": [
        {
          "internalType": "uint256",
          "name": "agentId",
          "type": "uint256"
        }
      ],
      "name": "getReputation",
      "outputs": [
        {
          "internalType": "uint256",
          "name": "score",
          "type": "uint256"
        }
      ],
      "stateMutability": "view",
      "type": "function"
    },
    {
      "inputs": [
        {
          "internalType": "uint256",
          "name": "agentId",
          "type": "uint256"
        }
      ],
      "name": "incrementPostCount",
      "outputs": [],
      "stateMutability": "nonpayable",
      "type": "function"
    },
    {
      "inputs": [
        {
          "internalType": "uint256",
          "name": "agentId",
          "type": "uint256"
        }
      ],
      "name": "incrementReactions",
      "outputs": [],
      "stateMutability": "nonpayable",
      "type": "function"
    },
    {
      "inputs": [
        {
          "internalType": "uint256",
          "name": "followerTokenId",
          "type": "uint256"
        },
        {
          "internalType": "uint256",
          "name": "targetTokenId",
          "type": "uint256"
        }
      ],
      "name": "isFollowing",
      "outputs": [
        {
          "internalType": "bool",
          "name": "",
          "type": "bool"
        }
      ],
      "stateMutability": "view",
      "type": "function"
    },
    {
      "inputs": [],
      "name": "owner",
      "outputs": [
        {
          "internalType": "address",
          "name": "",
          "type": "address"
        }
      ],
      "stateMutability": "view",
      "type": "function"
    },
    {
      "inputs": [
        {
          "internalType": "uint256",
          "name": "",
          "type": "uint256"
        }
      ],
      "name": "postCount",
      "outputs": [
        {
          "internalType": "uint256",
          "name": "",
          "type": "uint256"
        }
      ],
      "stateMutability": "view",
      "type": "function"
    },
    {
      "inputs": [
        {
          "internalType": "uint256",
          "name": "",
          "type": "uint256"
        }
      ],
      "name": "reactionsReceived",
      "outputs": [
        {
          "internalType": "uint256",
          "name": "",
          "type": "uint256"
        }
      ],
      "stateMutability": "view",
      "type": "function"
    },
    {
      "inputs": [],
      "name": "renounceOwnership",
      "outputs": [],
      "stateMutability": "nonpayable",
      "type": "function"
    },
    {
      "inputs": [
        {
          "internalType": "address",
          "name": "updater",
          "type": "address"
        },
        {
          "internalType": "bool",
          "name": "authorized",
          "type": "bool"
        }
      ],
      "name": "setAuthorizedUpdater",
      "outputs": [],
      "stateMutability": "nonpayable",
      "type": "function"
    },
    {
      "inputs": [
        {
          "internalType": "uint256",
          "name": "",
          "type": "uint256"
        }
      ],
      "name": "tipVolume",
      "outputs": [
        {
          "internalType": "uint256",
          "name": "",
          "type": "uint256"
        }
      ],
      "stateMutability": "view",
      "type": "function"
    },
    {
      "inputs": [
        {
          "internalType": "address",
          "name": "newOwner",
          "type": "address"
        }
      ],
      "name": "transferOwnership",
      "outputs": [],
      "stateMutability": "nonpayable",
      "type": "function"
    },
    {
      "inputs": [
        {
          "internalType": "uint256",
          "name": "followerTokenId",
          "type": "uint256"
        },
        {
          "internalType": "uint256",
          "name": "targetTokenId",
          "type": "uint256"
        }
      ],
      "name": "unfollow",
      "outputs": [],
      "stateMutability": "nonpayable",
      "type": "function"
    }
  ],
  "bytecode": "0x6080604052348015600e575f80fd5b503380603357604051631e4fbdf760e01b81525f600482015260240160405180910390fd5b603a816063565b5060017f9b779b17422d0df92223018b32b4d1fa46e071723d6817e2486d003becc55f005560b2565b5f80546001600160a01b038381166001600160a01b0319831681178455604051919092169283917f8be0079c531659141344cd1fd0a4f28419497f9722a3daafe3b4186f6b6457e09190a35050565b610b8f806100bf5f395ff3fe608060405234801561000f575f80fd5b506004361061011c575f3560e01c806389370d8b116100a9578063a8c6178f1161006e578063a8c6178f14610297578063b4b834b1146102aa578063f2fde38b146102bd578063f9963239146102d0578063fb1bf05d146102ef575f80fd5b806389370d8b146102155780638da5cb5b146102285780638e70d3b9146102425780638ff29cfe1461026257806399fc65d414610284575f80fd5b80636724a7b2116100ef5780636724a7b2146101a9578063715018a6146101c85780637467124f146101d057806381687e67146101ef578063821defc214610202575f80fd5b8063284837881461012057806347720ebb146101525780634e28f72b1461017557806359adeb2d14610194575b5f80fd5b61013f61012e366004610984565b60056020525f908152604090205481565b6040519081526020015b60405180910390f35b61016561016036600461099b565b610302565b6040519015158152602001610149565b61013f610183366004610984565b60076020525f908152604090205481565b6101a76101a2366004610984565b610325565b005b61013f6101b7366004610984565b60066020525f908152604090205481565b6101a7610391565b61013f6101de366004610984565b5f9081526002602052604090205490565b6101a76101fd36600461099b565b6103a4565b6101a761021036600461099b565b61040c565b61013f610223366004610984565b610569565b5f546040516001600160a01b039091168152602001610149565b610255610250366004610984565b6105f3565b60405161014991906109bb565b610165610270366004610a19565b60086020525f908152604090205460ff1681565b6101a7610292366004610a39565b610652565b6102556102a5366004610984565b610684565b6101a76102b8366004610984565b6106e1565b6101a76102cb366004610a19565b61073c565b61013f6102de366004610984565b5f9081526003602052604090205490565b6101a76102fd36600461099b565b610779565b5f82815260016020908152604080832084845290915290205460ff165b92915050565b335f9081526008602052604090205460ff168061034b57505f546001600160a01b031633145b6103705760405162461bcd60e51b815260040161036790610a72565b60405180910390fd5b5f81815260056020526040812080549161038983610abd565b919050555050565b610399610909565b6103a25f610935565b565b335f9081526008602052604090205460ff16806103ca57505f546001600160a01b031633145b6103e65760405162461bcd60e51b815260040161036790610a72565b5f8281526006602052604081208054839290610403908490610ad5565b90915550505050565b80820361045b5760405162461bcd60e51b815260206004820152601f60248201527f536f6369616c47726170683a2043616e6e6f7420666f6c6c6f772073656c66006044820152606401610367565b5f82815260016020908152604080832084845290915290205460ff16156104c45760405162461bcd60e51b815260206004820152601e60248201527f536f6369616c47726170683a20416c726561647920666f6c6c6f77696e6700006044820152606401610367565b5f8281526001602081815260408084208585528252808420805460ff1916841790556002825280842080546004845282862088875284528286208190558085018255908552828520018690558584526003825280842080549384018155845292200182905551819083907f3208077dc5258a26bfd73edd667e0abf8b932d316d08950edf92ef2c943d08fb9061055d9042815260200190565b60405180910390a35050565b5f81815260076020526040812054610582906002610ae8565b5f838152600660205260409020546105a29066038d7ea4c6800090610aff565b5f848152600560208190526040909120546105bc91610ae8565b5f858152600260205260409020546105d590600a610ae8565b6105df9190610ad5565b6105e99190610ad5565b61031f9190610ad5565b5f8181526002602090815260409182902080548351818402810184019094528084526060939283018282801561064657602002820191905f5260205f20905b815481526020019060010190808311610632575b50505050509050919050565b61065a610909565b6001600160a01b03919091165f908152600860205260409020805460ff1916911515919091179055565b5f8181526003602090815260409182902080548351818402810184019094528084526060939283018282801561064657602002820191905f5260205f20908154815260200190600101908083116106325750505050509050919050565b335f9081526008602052604090205460ff168061070757505f546001600160a01b031633145b6107235760405162461bcd60e51b815260040161036790610a72565b5f81815260076020526040812080549161038983610abd565b610744610909565b6001600160a01b03811661076d57604051631e4fbdf760e01b81525f6004820152602401610367565b61077681610935565b50565b5f82815260016020908152604080832084845290915290205460ff166107e15760405162461bcd60e51b815260206004820152601a60248201527f536f6369616c47726170683a204e6f7420666f6c6c6f77696e670000000000006044820152606401610367565b5f8281526001602081815260408084208585528252808420805460ff1916905560048252808420868552825280842054858552600290925283205490929161082891610b1e565b90508082146108a6575f83815260026020526040812080548390811061085057610850610b31565b905f5260205f20015490508060025f8681526020019081526020015f20848154811061087e5761087e610b31565b5f91825260208083209091019290925585815260048252604080822093825292909152208290555b5f8381526002602052604090208054806108c2576108c2610b45565b600190038181905f5260205f20015f9055905582847f6be1bc0876838565993ed8d411eabddf536ea48f8c9a6b19a94ee8f64f4b62db60405160405180910390a350505050565b5f546001600160a01b031633146103a25760405163118cdaa760e01b8152336004820152602401610367565b5f80546001600160a01b038381166001600160a01b0319831681178455604051919092169283917f8be0079c531659141344cd1fd0a4f28419497f9722a3daafe3b4186f6b6457e09190a35050565b5f60208284031215610994575f80fd5b5035919050565b5f80604083850312156109ac575f80fd5b50508035926020909101359150565b602080825282518282018190525f9190848201906040850190845b818110156109f2578351835292840192918401916001016109d6565b50909695505050505050565b80356001600160a01b0381168114610a14575f80fd5b919050565b5f60208284031215610a29575f80fd5b610a32826109fe565b9392505050565b5f8060408385031215610a4a575f80fd5b610a53836109fe565b915060208301358015158114610a67575f80fd5b809150509250929050565b6020808252601b908201527f536f6369616c47726170683a204e6f7420617574686f72697a65640000000000604082015260600190565b634e487b7160e01b5f52601160045260245ffd5b5f60018201610ace57610ace610aa9565b5060010190565b8082018082111561031f5761031f610aa9565b808202811582820484141761031f5761031f610aa9565b5f82610b1957634e487b7160e01b5f52601260045260245ffd5b500490565b8181038181111561031f5761031f610aa9565b634e487b7160e01b5f52603260045260245ffd5b634e487b7160e01b5f52603160045260245ffdfea264697066735822122010a9ed5490fd3176803dad8ab1b8b8bf9b7f34d4365d7e9044aa93d45f84a3fc64736f6c63430008190033",
  "linkReferences": {},
  "deployedLinkReferences": {}
}