{
  "_format": "hh-sol-artifact-1",
  "contractName": "AgentNFT",
  "sourceName": "contracts/AgentNFT.sol",
  "abi": [
    {
      "inputs": [
        {
          "internalType": "address",
          "name": "_oracle",
          "type": "address"
        },
        {
          "internalType": "address",
          "name": "_treasury",
          "type": "address"
        },
        {
          "internalType": "uint256",
          "name": "_mintFee",
          "type": "uint256"
        }
      ],
      "stateMutability": "nonpayable",
      "type": "constructor"
    },
    {
      "inputs": [],
      "name": "AccessControlBadConfirmation",
      "type": "error"
    },
    {
      "inputs": [
        {
          "internalType": "address",
          "name": "account",
          "type": "address"
        },
        {
          "internalType": "bytes32",
          "name": "neededRole",
          "type": "bytes32"
        }
      ],
      "name": "AccessControlUnauthorizedAccount",
      "type": "error"
    },
    {
      "inputs": [],
      "name": "ERC721EnumerableForbiddenBatchMint",
      "type": "error"
    },
    {
      "inputs": [
        {
          "internalType": "address",
          "name": "sender",
          "type": "address"
        },
        {
          "internalType": "uint256",
          "name": "tokenId",
          "type": "uint256"
        },
        {
          "internalType": "address",
          "name": "owner",
          "type": "address"
        }
      ],
      "name": "ERC721IncorrectOwner",
      "type": "error"
    },
    {
      "inputs": [
        {
          "internalType": "address",
          "name": "operator",
          "type": "address"
        },
        {
          "internalType": "uint256",
          "name": "tokenId",
          "type": "uint256"
        }
      ],
      "name": "ERC721InsufficientApproval",
      "type": "error"
    },
    {
      "inputs": [
        {
          "internalType": "address",
          "name": "approver",
          "type": "address"
        }
      ],
      "name": "ERC721InvalidApprover",
      "type": "error"
    },
    {
      "inputs": [
        {
          "internalType": "address",
          "name": "operator",
          "type": "address"
        }
      ],
      "name": "ERC721InvalidOperator",
      "type": "error"
    },
    {
      "inputs": [
        {
          "internalType": "address",
          "name": "owner",
          "type": "address"
        }
      ],
      "name": "ERC721InvalidOwner",
      "type": "error"
    },
    {
      "inputs": [
        {
          "internalType": "address",
          "name": "receiver",
          "type": "address"
        }
      ],
      "name": "ERC721InvalidReceiver",
      "type": "error"
    },
    {
      "inputs": [
        {
          "internalType": "address",
          "name": "sender",
          "type": "address"
        }
      ],
      "name": "ERC721InvalidSender",
      "type": "error"
    },
    {
      "inputs": [
        {
          "internalType": "uint256",
          "name": "tokenId",
          "type": "uint256"
        }
      ],
      "name": "ERC721NonexistentToken",
      "type": "error"
    },
    {
      "inputs": [
        {
          "internalType": "address",
          "name": "owner",
          "type": "address"
        },
        {
          "internalType": "uint256",
          "name": "index",
          "type": "uint256"
        }
      ],
      "name": "ERC721OutOfBoundsIndex",
      "type": "error"
    },
    {
      "inputs": [],
      "name": "ReentrancyGuardReentrantCall",
      "type": "error"
    },
    {
      "anonymous": false,
      "inputs": [
        {
          "indexed": true,
          "internalType": "uint256",
          "name": "sourceTokenId",
          "type": "uint256"
        },
        {
          "indexed": true,
          "internalType": "uint256",
          "name": "newTokenId",
          "type": "uint256"
        },
        {
          "indexed": true,
          "internalType": "address",
          "name": "clonedTo",
          "type": "address"
        }
      ],
      "name": "AgentCloned",
      "type": "event"
    },
    {
      "anonymous": false,
      "inputs": [
        {
          "indexed": true,
          "internalType": "uint256",
          "name": "tokenId",
          "type": "uint256"
        },
        {
          "indexed": true,
          "internalType": "address",
          "name": "owner",
          "type": "address"
        },
        {
          "indexed": false,
          "internalType": "string",
          "name": "personalityTag",
          "type": "string"
        }
      ],
      "name": "AgentMinted",
      "type": "event"
    },
    {
      "anonymous": false,
      "inputs": [
        {
          "indexed": true,
          "internalType": "address",
          "name": "owner",
          "type": "address"
        },
        {
          "indexed": true,
          "internalType": "address",
          "name": "approved",
          "type": "address"
        },
        {
          "indexed": true,
          "internalType": "uint256",
          "name": "tokenId",
          "type": "uint256"
        }
      ],
      "name": "Approval",
      "type": "event"
    },
    {
      "anonymous": false,
      "inputs": [
        {
          "indexed": true,
          "internalType": "address",
          "name": "owner",
          "type": "address"
        },
        {
          "indexed": true,
          "internalType": "address",
          "name": "operator",
          "type": "address"
        },
        {
          "indexed": false,
          "internalType": "bool",
          "name": "approved",
          "type": "bool"
        }
      ],
      "name": "ApprovalForAll",
      "type": "event"
    },
    {
      "anonymous": false,
      "inputs": [
        {
          "indexed": true,
          "internalType": "uint256",
          "name": "tokenId",
          "type": "uint256"
        },
        {
          "indexed": false,
          "internalType": "uint256",
          "name": "newFee",
          "type": "uint256"
        }
      ],
      "name": "CloneFeeUpdated",
      "type": "event"
    },
    {
      "anonymous": false,
      "inputs": [
        {
          "indexed": true,
          "internalType": "uint256",
          "name": "tokenId",
          "type": "uint256"
        },
        {
          "indexed": false,
          "internalType": "bytes32",
          "name": "newHash",
          "type": "bytes32"
        }
      ],
      "name": "MetadataUpdated",
      "type": "event"
    },
    {
      "anonymous": false,
      "inputs": [
        {
          "indexed": true,
          "internalType": "address",
          "name": "newOracle",
          "type": "address"
        }
      ],
      "name": "OracleUpdated",
      "type": "event"
    },
    {
      "anonymous": false,
      "inputs": [
        {
          "indexed": true,
          "internalType": "bytes32",
          "name": "role",
          "type": "bytes32"
        },
        {
          "indexed": true,
          "internalType": "bytes32",
          "name": "previousAdminRole",
          "type": "bytes32"
        },
        {
          "indexed": true,
          "internalType": "bytes32",
          "name": "newAdminRole",
          "type": "bytes32"
        }
      ],
      "name": "RoleAdminChanged",
      "type": "event"
    },
    {
      "anonymous": false,
      "inputs": [
        {
          "indexed": true,
          "internalType": "bytes32",
          "name": "role",
          "type": "bytes32"
        },
        {
          "indexed": true,
          "internalType": "address",
          "name": "account",
          "type": "address"
        },
        {
          "indexed": true,
          "internalType": "address",
          "name": "sender",
          "type": "address"
        }
      ],
      "name": "RoleGranted",
      "type": "event"
    },
    {
      "anonymous": false,
      "inputs": [
        {
          "indexed": true,
          "internalType": "bytes32",
          "name": "role",
          "type": "bytes32"
        },
        {
          "indexed": true,
          "internalType": "address",
          "name": "account",
          "type": "address"
        },
        {
          "indexed": true,
          "internalType": "address",
          "name": "sender",
          "type": "address"
        }
      ],
      "name": "RoleRevoked",
      "type": "event"
    },
    {
      "anonymous": false,
      "inputs": [
        {
          "indexed": true,
          "internalType": "address",
          "name": "from",
          "type": "address"
        },
        {
          "indexed": true,
          "internalType": "address",
          "name": "to",
          "type": "address"
        },
        {
          "indexed": true,
          "internalType": "uint256",
          "name": "tokenId",
          "type": "uint256"
        }
      ],
      "name": "Transfer",
      "type": "event"
    },
    {
      "anonymous": false,
      "inputs": [
        {
          "indexed": true,
          "internalType": "uint256",
          "name": "tokenId",
          "type": "uint256"
        },
        {
          "indexed": true,
          "internalType": "address",
          "name": "executor",
          "type": "address"
        }
      ],
      "name": "UsageAuthorized",
      "type": "event"
    },
    {
      "anonymous": false,
      "inputs": [
        {
          "indexed": true,
          "internalType": "uint256",
          "name": "tokenId",
          "type": "uint256"
        },
        {
          "indexed": true,
          "internalType": "address",
          "name": "executor",
          "type": "address"
        }
      ],
      "name": "UsageRevoked",
      "type": "event"
    },
    {
      "inputs": [],
      "name": "DEFAULT_ADMIN_ROLE",
      "outputs": [
        {
          "internalType": "bytes32",
          "name": "",
          "type": "bytes32"
        }
      ],
      "stateMutability": "view",
      "type": "function"
    },
    {
      "inputs": [],
      "name": "MAX_AUTHORIZED",
      "outputs": [
        {
          "internalType": "uint256",
          "name": "",
          "type": "uint256"
        }
      ],
      "stateMutability": "view",
      "type": "function"
    },
    {
      "inputs": [],
      "name": "MINTER_ROLE",
      "outputs": [
        {
          "internalType": "bytes32",
          "name": "",
          "type": "bytes32"
        }
      ],
      "stateMutability": "view",
      "type": "function"
    },
    {
      "inputs": [
        {
          "internalType": "address",
          "name": "to",
          "type": "address"
        },
        {
          "internalType": "string",
          "name": "encryptedURI",
          "type": "string"
        },
        {
          "internalType": "bytes32",
          "name": "metadataHash",
          "type": "bytes32"
        },
        {
          "internalType": "string",
          "name": "personalityTag",
          "type": "string"
        },
        {
          "internalType": "uint256",
          "name": "cloneFee",
          "type": "uint256"
        }
      ],
      "name": "adminMint",
      "outputs": [
        {
          "internalType": "uint256",
          "name": "tokenId",
          "type": "uint256"
        }
      ],
      "stateMutability": "nonpayable",
      "type": "function"
    },
    {
      "inputs": [
        {
          "internalType": "address",
          "name": "to",
          "type": "address"
        },
        {
          "internalType": "uint256",
          "name": "tokenId",
          "type": "uint256"
        }
      ],
      "name": "approve",
      "outputs": [],
      "stateMutability": "nonpayable",
      "type": "function"
    },
    {
      "inputs": [
        {
          "internalType": "uint256",
          "name": "tokenId",
          "type": "uint256"
        },
        {
          "internalType": "address",
          "name": "executor",
          "type": "address"
        },
        {
          "internalType": "bytes",
          "name": "permissions",
          "type": "bytes"
        }
      ],
      "name": "authorizeUsage",
      "outputs": [],
      "stateMutability": "nonpayable",
      "type": "function"
    },
    {
      "inputs": [
        {
          "internalType": "address",
          "name": "owner",
          "type": "address"
        }
      ],
      "name": "balanceOf",
      "outputs": [
        {
          "internalType": "uint256",
          "name": "",
          "type": "uint256"
        }
      ],
      "stateMutability": "view",
      "type": "function"
    },
    {
      "inputs": [
        {
          "internalType": "uint256",
          "name": "tokenId",
          "type": "uint256"
        }
      ],
      "name": "getAgentMetadata",
      "outputs": [
        {
          "components": [
            {
              "internalType": "bytes32",
              "name": "metadataHash",
              "type": "bytes32"
            },
            {
              "internalType": "string",
              "name": "encryptedURI",
              "type": "string"
            },
            {
              "internalType": "string",
              "name": "personalityTag",
              "type": "string"
            },
            {
              "internalType": "address",
              "name": "originalCreator",
              "type": "address"
            },
            {
              "internalType": "uint256",
              "name": "cloneFee",
              "type": "uint256"
            },
            {
              "internalType": "uint256",
              "name": "mintedAt",
              "type": "uint256"
            }
          ],
          "internalType": "struct AgentNFT.AgentMetadata",
          "name": "",
          "type": "tuple"
        }
      ],
      "stateMutability": "view",
      "type": "function"
    },
    {
      "inputs": [
        {
          "internalType": "uint256",
          "name": "tokenId",
          "type": "uint256"
        }
      ],
      "name": "getApproved",
      "outputs": [
        {
          "internalType": "address",
          "name": "",
          "type": "address"
        }
      ],
      "stateMutability": "view",
      "type": "function"
    },
    {
      "inputs": [
        {
          "internalType": "uint256",
          "name": "tokenId",
          "type": "uint256"
        }
      ],
      "name": "getAuthorizedList",
      "outputs": [
        {
          "internalType": "address[]",
          "name": "",
          "type": "address[]"
        }
      ],
      "stateMutability": "view",
      "type": "function"
    },
    {
      "inputs": [
        {
          "internalType": "uint256",
          "name": "tokenId",
          "type": "uint256"
        }
      ],
      "name": "getCloneFee",
      "outputs": [
        {
          "internalType": "uint256",
          "name": "",
          "type": "uint256"
        }
      ],
      "stateMutability": "view",
      "type": "function"
    },
    {
      "inputs": [
        {
          "internalType": "uint256",
          "name": "tokenId",
          "type": "uint256"
        }
      ],
      "name": "getEncryptedURI",
      "outputs": [
        {
          "internalType": "string",
          "name": "",
          "type": "string"
        }
      ],
      "stateMutability": "view",
      "type": "function"
    },
    {
      "inputs": [
        {
          "internalType": "uint256",
          "name": "tokenId",
          "type": "uint256"
        }
      ],
      "name": "getMetadataHash",
      "outputs": [
        {
          "internalType": "bytes32",
          "name": "",
          "type": "bytes32"
        }
      ],
      "stateMutability": "view",
      "type": "function"
    },
    {
      "inputs": [
        {
          "internalType": "uint256",
          "name": "tokenId",
          "type": "uint256"
        }
      ],
      "name": "getOriginalCreator",
      "outputs": [
        {
          "internalType": "address",
          "name": "",
          "type": "address"
        }
      ],
      "stateMutability": "view",
      "type": "function"
    },
    {
      "inputs": [
        {
          "internalType": "bytes32",
          "name": "role",
          "type": "bytes32"
        }
      ],
      "name": "getRoleAdmin",
      "outputs": [
        {
          "internalType": "bytes32",
          "name": "",
          "type": "bytes32"
        }
      ],
      "stateMutability": "view",
      "type": "function"
    },
    {
      "inputs": [
        {
          "internalType": "address",
          "name": "account",
          "type": "address"
        }
      ],
      "name": "grantMinterRole",
      "outputs": [],
      "stateMutability": "nonpayable",
      "type": "function"
    },
    {
      "inputs": [
        {
          "internalType": "bytes32",
          "name": "role",
          "type": "bytes32"
        },
        {
          "internalType": "address",
          "name": "account",
          "type": "address"
        }
      ],
      "name": "grantRole",
      "outputs": [],
      "stateMutability": "nonpayable",
      "type": "function"
    },
    {
      "inputs": [
        {
          "internalType": "bytes32",
          "name": "role",
          "type": "bytes32"
        },
        {
          "internalType": "address",
          "name": "account",
          "type": "address"
        }
      ],
      "name": "hasRole",
      "outputs": [
        {
          "internalType": "bool",
          "name": "",
          "type": "bool"
        }
      ],
      "stateMutability": "view",
      "type": "function"
    },
    {
      "inputs": [
        {
          "internalType": "address",
          "name": "to",
          "type": "address"
        },
        {
          "internalType": "uint256",
          "name": "tokenId",
          "type": "uint256"
        },
        {
          "internalType": "bytes",
          "name": "sealedKey",
          "type": "bytes"
        },
        {
          "internalType": "bytes",
          "name": "proof",
          "type": "bytes"
        }
      ],
      "name": "iCloneFrom",
      "outputs": [
        {
          "internalType": "uint256",
          "name": "newTokenId",
          "type": "uint256"
        }
      ],
      "stateMutability": "nonpayable",
      "type": "function"
    },
    {
      "inputs": [
        {
          "internalType": "address",
          "name": "from",
          "type": "address"
        },
        {
          "internalType": "address",
          "name": "to",
          "type": "address"
        },
        {
          "internalType": "uint256",
          "name": "tokenId",
          "type": "uint256"
        },
        {
          "internalType": "bytes",
          "name": "sealedKey",
          "type": "bytes"
        },
        {
          "internalType": "bytes",
          "name": "proof",
          "type": "bytes"
        }
      ],
      "name": "iTransferFrom",
      "outputs": [],
      "stateMutability": "nonpayable",
      "type": "function"
    },
    {
      "inputs": [
        {
          "internalType": "address",
          "name": "owner",
          "type": "address"
        },
        {
          "internalType": "address",
          "name": "operator",
          "type": "address"
        }
      ],
      "name": "isApprovedForAll",
      "outputs": [
        {
          "internalType": "bool",
          "name": "",
          "type": "bool"
        }
      ],
      "stateMutability": "view",
      "type": "function"
    },
    {
      "inputs": [
        {
          "internalType": "uint256",
          "name": "tokenId",
          "type": "uint256"
        },
        {
          "internalType": "address",
          "name": "executor",
          "type": "address"
        }
      ],
      "name": "isAuthorized",
      "outputs": [
        {
          "internalType": "bool",
          "name": "",
          "type": "bool"
        }
      ],
      "stateMutability": "view",
      "type": "function"
    },
    {
      "inputs": [
        {
          "internalType": "address",
          "name": "to",
          "type": "address"
        },
        {
          "internalType": "uint256",
          "name": "tokenId",
          "type": "uint256"
        },
        {
          "internalType": "bytes",
          "name": "sealedKey",
          "type": "bytes"
        },
        {
          "internalType": "bytes",
          "name": "proof",
          "type": "bytes"
        }
      ],
      "name": "marketplaceClone",
      "outputs": [
        {
          "internalType": "uint256",
          "name": "newTokenId",
          "type": "uint256"
        }
      ],
      "stateMutability": "nonpayable",
      "type": "function"
    },
    {
      "inputs": [
        {
          "internalType": "address",
          "name": "to",
          "type": "address"
        },
        {
          "internalType": "string",
          "name": "encryptedURI",
          "type": "string"
        },
        {
          "internalType": "bytes32",
          "name": "metadataHash",
          "type": "bytes32"
        },
        {
          "internalType": "string",
          "name": "personalityTag",
          "type": "string"
        },
        {
          "internalType": "uint256",
          "name": "cloneFee",
          "type": "uint256"
        }
      ],
      "name": "mintAgent",
      "outputs": [
        {
          "internalType": "uint256",
          "name": "tokenId",
          "type": "uint256"
        }
      ],
      "stateMutability": "payable",
      "type": "function"
    },
    {
      "inputs": [],
      "name": "mintFee",
      "outputs": [
        {
          "internalType": "uint256",
          "name": "",
          "type": "uint256"
        }
      ],
      "stateMutability": "view",
      "type": "function"
    },
    {
      "inputs": [],
      "name": "name",
      "outputs": [
        {
          "internalType": "string",
          "name": "",
          "type": "string"
        }
      ],
      "stateMutability": "view",
      "type": "function"
    },
    {
      "inputs": [],
      "name": "oracle",
      "outputs": [
        {
          "internalType": "address",
          "name": "",
          "type": "address"
        }
      ],
      "stateMutability": "view",
      "type": "function"
    },
    {
      "inputs": [
        {
          "internalType": "uint256",
          "name": "tokenId",
          "type": "uint256"
        }
      ],
      "name": "ownerOf",
      "outputs": [
        {
          "internalType": "address",
          "name": "",
          "type": "address"
        }
      ],
      "stateMutability": "view",
      "type": "function"
    },
    {
      "inputs": [
        {
          "internalType": "bytes32",
          "name": "role",
          "type": "bytes32"
        },
        {
          "internalType": "address",
          "name": "callerConfirmation",
          "type": "address"
        }
      ],
      "name": "renounceRole",
      "outputs": [],
      "stateMutability": "nonpayable",
      "type": "function"
    },
    {
      "inputs": [
        {
          "internalType": "bytes32",
          "name": "role",
          "type": "bytes32"
        },
        {
          "internalType": "address",
          "name": "account",
          "type": "address"
        }
      ],
      "name": "revokeRole",
      "outputs": [],
      "stateMutability": "nonpayable",
      "type": "function"
    },
    {
      "inputs": [
        {
          "internalType": "uint256",
          "name": "tokenId",
          "type": "uint256"
        },
        {
          "internalType": "address",
          "name": "executor",
          "type": "address"
        }
      ],
      "name": "revokeUsage",
      "outputs": [],
      "stateMutability": "nonpayable",
      "type": "function"
    },
    {
      "inputs": [
        {
          "internalType": "address",
          "name": "from",
          "type": "address"
        },
        {
          "internalType": "address",
          "name": "to",
          "type": "address"
        },
        {
          "internalType": "uint256",
          "name": "tokenId",
          "type": "uint256"
        }
      ],
      "name": "safeTransferFrom",
      "outputs": [],
      "stateMutability": "nonpayable",
      "type": "function"
    },
    {
      "inputs": [
        {
          "internalType": "address",
          "name": "from",
          "type": "address"
        },
        {
          "internalType": "address",
          "name": "to",
          "type": "address"
        },
        {
          "internalType": "uint256",
          "name": "tokenId",
          "type": "uint256"
        },
        {
          "internalType": "bytes",
          "name": "data",
          "type": "bytes"
        }
      ],
      "name": "safeTransferFrom",
      "outputs": [],
      "stateMutability": "nonpayable",
      "type": "function"
    },
    {
      "inputs": [
        {
          "internalType": "address",
          "name": "operator",
          "type": "address"
        },
        {
          "internalType": "bool",
          "name": "approved",
          "type": "bool"
        }
      ],
      "name": "setApprovalForAll",
      "outputs": [],
      "stateMutability": "nonpayable",
      "type": "function"
    },
    {
      "inputs": [
        {
          "internalType": "uint256",
          "name": "tokenId",
          "type": "uint256"
        },
        {
          "internalType": "uint256",
          "name": "fee",
          "type": "uint256"
        }
      ],
      "name": "setCloneFee",
      "outputs": [],
      "stateMutability": "nonpayable",
      "type": "function"
    },
    {
      "inputs": [
        {
          "internalType": "uint256",
          "name": "_mintFee",
          "type": "uint256"
        }
      ],
      "name": "setMintFee",
      "outputs": [],
      "stateMutability": "nonpayable",
      "type": "function"
    },
    {
      "inputs": [
        {
          "internalType": "address",
          "name": "_oracle",
          "type": "address"
        }
      ],
      "name": "setOracle",
      "outputs": [],
      "stateMutability": "nonpayable",
      "type": "function"
    },
    {
      "inputs": [
        {
          "internalType": "address",
          "name": "_treasury",
          "type": "address"
        }
      ],
      "name": "setTreasury",
      "outputs": [],
      "stateMutability": "nonpayable",
      "type": "function"
    },
    {
      "inputs": [
        {
          "internalType": "bytes4",
          "name": "interfaceId",
          "type": "bytes4"
        }
      ],
      "name": "supportsInterface",
      "outputs": [
        {
          "internalType": "bool",
          "name": "",
          "type": "bool"
        }
      ],
      "stateMutability": "view",
      "type": "function"
    },
    {
      "inputs": [],
      "name": "symbol",
      "outputs": [
        {
          "internalType": "string",
          "name": "",
          "type": "string"
        }
      ],
      "stateMutability": "view",
      "type": "function"
    },
    {
      "inputs": [
        {
          "internalType": "uint256",
          "name": "index",
          "type": "uint256"
        }
      ],
      "name": "tokenByIndex",
      "outputs": [
        {
          "internalType": "uint256",
          "name": "",
          "type": "uint256"
        }
      ],
      "stateMutability": "view",
      "type": "function"
    },
    {
      "inputs": [
        {
          "internalType": "address",
          "name": "owner",
          "type": "address"
        },
        {
          "internalType": "uint256",
          "name": "index",
          "type": "uint256"
        }
      ],
      "name": "tokenOfOwnerByIndex",
      "outputs": [
        {
          "internalType": "uint256",
          "name": "",
          "type": "uint256"
        }
      ],
      "stateMutability": "view",
      "type": "function"
    },
    {
      "inputs": [
        {
          "internalType": "uint256",
          "name": "tokenId",
          "type": "uint256"
        }
      ],
      "name": "tokenURI",
      "outputs": [
        {
          "internalType": "string",
          "name": "",
          "type": "string"
        }
      ],
      "stateMutability": "view",
      "type": "function"
    },
    {
      "inputs": [],
      "name": "totalSupply",
      "outputs": [
        {
          "internalType": "uint256",
          "name": "",
          "type": "uint256"
        }
      ],
      "stateMutability": "view",
      "type": "function"
    },
    {
      "inputs": [
        {
          "internalType": "address",
          "name": "from",
          "type": "address"
        },
        {
          "internalType": "address",
          "name": "to",
          "type": "address"
        },
        {
          "internalType": "uint256",
          "name": "tokenId",
          "type": "uint256"
        }
      ],
      "name": "transferFrom",
      "outputs": [],
      "stateMutability": "nonpayable",
      "type": "function"
    },
    {
      "inputs": [],
      "name": "treasury",
      "outputs": [
        {
          "internalType": "address",
          "name": "",
          "type": "address"
        }
      ],
      "stateMutability": "view",
      "type": "function"
    }
  ],
  "bytecode": "0x60806040526001600e55348015610014575f80fd5b50604051613ee9380380613ee98339810160408190526100339161020c565b6040518060400160405280600e81526020016d1059d95b9d11995959081253919560921b815250604051806040016040528060058152602001641051d1539560da1b815250815f908161008691906102dd565b50600161009382826102dd565b50505060016100ac6100a961012060201b60201c565b90565b55600b80546001600160a01b038086166001600160a01b031992831617909255600d805492851692909116919091179055600c8190556100ec5f33610144565b506101177f9f2df0fed2c77648de5860a4cc508cd0818c85b8b8a1ab4ceeef8d981c8956a633610144565b5050505061039c565b7f9b779b17422d0df92223018b32b4d1fa46e071723d6817e2486d003becc55f0090565b5f828152600a602090815260408083206001600160a01b038516845290915281205460ff166101e8575f838152600a602090815260408083206001600160a01b03861684529091529020805460ff191660011790556101a03390565b6001600160a01b0316826001600160a01b0316847f2f8788117e7eff1d82e926ec794901d17c78024a50270940304540a733656f0d60405160405180910390a45060016101eb565b505f5b92915050565b80516001600160a01b0381168114610207575f80fd5b919050565b5f805f6060848603121561021e575f80fd5b610227846101f1565b9250610235602085016101f1565b9150604084015190509250925092565b634e487b7160e01b5f52604160045260245ffd5b600181811c9082168061026d57607f821691505b60208210810361028b57634e487b7160e01b5f52602260045260245ffd5b50919050565b601f8211156102d857805f5260205f20601f840160051c810160208510156102b65750805b601f840160051c820191505b818110156102d5575f81556001016102c2565b50505b505050565b81516001600160401b038111156102f6576102f6610245565b61030a816103048454610259565b84610291565b602080601f83116001811461033d575f84156103265750858301515b5f19600386901b1c1916600185901b178555610394565b5f85815260208120601f198616915b8281101561036b5788860151825594840194600190910190840161034c565b508582101561038857878501515f19600388901b60f8161c191681555b505060018460011b0185555b505050505050565b613b40806103a95f395ff3fe608060405260043610610275575f3560e01c806370a082311161014a578063a33d9363116100be578063d547741f11610078578063d547741f146107c3578063dfd177d3146107e2578063e985e9c514610801578063eddd0d9c14610820578063f0f442601461083f578063f448f8711461085e575f80fd5b8063a33d9363146106e1578063acbb3f7c1461070f578063b88d4fde1461072e578063c87b56dd1461074d578063caa47fbf1461076c578063d5391393146107a3575f80fd5b80637dc0d1d01161010f5780637dc0d1d01461064a57806391d148541461066957806395d89b41146106885780639d9709f51461069c578063a217fddf146106af578063a22cb465146106c2575f80fd5b806370a08231146105ba57806372ae31cf146105d95780637968e8f7146105f85780637adbf9731461060c5780637b297a6f1461062b575f80fd5b80633338522f116101ec57806357d89af0116101a657806357d89af0146104ce57806359295330146104ed5780635ffd817114610519578063609c6d7f1461053857806361d027b31461057c5780636352211e1461059b575f80fd5b80633338522f1461040757806336568abe146104335780633dd1eb611461045257806342842e0e146104715780634c001ab4146104905780634f6ccce7146104af575f80fd5b806318160ddd1161023d57806318160ddd1461034957806323b872dd1461035d578063248a9ca31461037c5780632bbd478f146103aa5780632f2ff15d146103c95780632f745c59146103e8575f80fd5b806301ffc9a71461027957806306fdde03146102ad578063081812fc146102ce578063095ea7b31461030557806313966db514610326575b5f80fd5b348015610284575f80fd5b5061029861029336600461312c565b61087d565b60405190151581526020015b60405180910390f35b3480156102b8575f80fd5b506102c161088d565b6040516102a49190613175565b3480156102d9575f80fd5b506102ed6102e8366004613187565b61091c565b6040516001600160a01b0390911681526020016102a4565b348015610310575f80fd5b5061032461031f3660046131b9565b610943565b005b348015610331575f80fd5b5061033b600c5481565b6040519081526020016102a4565b348015610354575f80fd5b5060085461033b565b348015610368575f80fd5b506103246103773660046131e1565b610952565b348015610387575f80fd5b5061033b610396366004613187565b5f908152600a602052604090206001015490565b3480156103b5575f80fd5b506103246103c436600461325f565b6109e0565b3480156103d4575f80fd5b506103246103e33660046132f3565b610c30565b3480156103f3575f80fd5b5061033b6104023660046131b9565b610c54565b348015610412575f80fd5b50610426610421366004613187565b610cb7565b6040516102a4919061331d565b34801561043e575f80fd5b5061032461044d3660046132f3565b610d20565b34801561045d575f80fd5b5061032461046c366004613369565b610d58565b34801561047c575f80fd5b5061032461048b3660046131e1565b610d79565b34801561049b575f80fd5b5061033b6104aa366004613382565b610d93565b3480156104ba575f80fd5b5061033b6104c9366004613187565b6111fa565b3480156104d9575f80fd5b506103246104e83660046132f3565b61124f565b3480156104f8575f80fd5b5061050c610507366004613187565b611289565b6040516102a49190613406565b348015610524575f80fd5b5061032461053336600461347b565b611462565b348015610543575f80fd5b506102986105523660046132f3565b5f9182526012602090815260408084206001600160a01b0393909316845291905290205460ff1690565b348015610587575f80fd5b50600d546102ed906001600160a01b031681565b3480156105a6575f80fd5b506102ed6105b5366004613187565b6114e5565b3480156105c5575f80fd5b5061033b6105d4366004613369565b6114ef565b3480156105e4575f80fd5b5061033b6105f336600461349b565b611534565b348015610603575f80fd5b5061033b606481565b348015610617575f80fd5b50610324610626366004613369565b6116bb565b348015610636575f80fd5b50610324610645366004613527565b61170f565b348015610655575f80fd5b50600b546102ed906001600160a01b031681565b348015610674575f80fd5b506102986106833660046132f3565b611916565b348015610693575f80fd5b506102c1611940565b61033b6106aa36600461349b565b61194f565b3480156106ba575f80fd5b5061033b5f81565b3480156106cd575f80fd5b506103246106dc36600461358a565b611b6b565b3480156106ec575f80fd5b5061033b6106fb366004613187565b5f908152600f602052604090206004015490565b34801561071a575f80fd5b506102c1610729366004613187565b611b76565b348015610739575f80fd5b506103246107483660046135d3565b611c31565b348015610758575f80fd5b506102c1610767366004613187565b611c49565b348015610777575f80fd5b506102ed610786366004613187565b5f908152600f60205260409020600301546001600160a01b031690565b3480156107ae575f80fd5b5061033b5f80516020613acb83398151915281565b3480156107ce575f80fd5b506103246107dd3660046132f3565b611cba565b3480156107ed575f80fd5b5061033b6107fc366004613382565b611cde565b34801561080c575f80fd5b5061029861081b3660046136a8565b61207c565b34801561082b575f80fd5b5061032461083a366004613187565b6120a9565b34801561084a575f80fd5b50610324610859366004613369565b6120b9565b348015610869575f80fd5b5061033b610878366004613187565b6120e6565b5f6108878261211e565b92915050565b60605f805461089b906136d0565b80601f01602080910402602001604051908101604052809291908181526020018280546108c7906136d0565b80156109125780601f106108e957610100808354040283529160200191610912565b820191905f5260205f20905b8154815290600101906020018083116108f557829003601f168201915b5050505050905090565b5f61092682612142565b505f828152600460205260409020546001600160a01b0316610887565b61094e82823361217a565b5050565b6001600160a01b03821661098057604051633250574960e11b81525f60048201526024015b60405180910390fd5b5f61098c838333612187565b9050836001600160a01b0316816001600160a01b0316146109da576040516364283d7b60e01b81526001600160a01b0380861660048301526024820184905282166044820152606401610977565b50505050565b6109e861225a565b6109f23386612275565b610a4a5760405162461bcd60e51b8152602060048201526024808201527f4167656e744e46543a204e6f7420617574686f72697a656420746f207472616e60448201526339b332b960e11b6064820152608401610977565b866001600160a01b0316610a5d866114e5565b6001600160a01b031614610ab35760405162461bcd60e51b815260206004820152601c60248201527f4167656e744e46543a2057726f6e672066726f6d2061646472657373000000006044820152606401610977565b6001600160a01b038616610b145760405162461bcd60e51b815260206004820152602260248201527f4167656e744e46543a205472616e7366657220746f207a65726f206164647265604482015261737360f01b6064820152608401610977565b610b1e82826122d2565b610b6a5760405162461bcd60e51b815260206004820152601e60248201527f4167656e744e46543a20496e76616c6964206f7261636c652070726f6f6600006044820152606401610977565b60208110610bda575f610b806020828486613708565b610b899161372f565b5f878152600f6020526040908190208290555190915086907f9c06c04824dfb4ebf41804d51120c24a2ab63d6230efe7b7bc5a199f837dd3ad90610bd09084815260200190565b60405180910390a2505b8215610bfd575f858152600f60205260409020600101610bfb848683613790565b505b610c06856123ae565b610c1187878761252e565b610c2760015f80516020613aeb83398151915255565b50505050505050565b5f828152600a6020526040902060010154610c4a816125db565b6109da83836125e8565b5f610c5e836114ef565b8210610c8f5760405163295f44f760e21b81526001600160a01b038416600482015260248101839052604401610977565b506001600160a01b03919091165f908152600660209081526040808320938352929052205490565b5f81815260116020908152604091829020805483518184028101840190945280845260609392830182828015610d1457602002820191905f5260205f20905b81546001600160a01b03168152600190910190602001808311610cf6575b50505050509050919050565b6001600160a01b0381163314610d495760405163334bd91960e11b815260040160405180910390fd5b610d538282612679565b505050565b5f610d62816125db565b610d535f80516020613acb833981519152836125e8565b610d5383838360405180602001604052805f815250611c31565b5f610d9c61225a565b610da5866126e4565b610dc15760405162461bcd60e51b81526004016109779061384a565b610dcb83836122d2565b610e175760405162461bcd60e51b815260206004820152601e60248201527f4167656e744e46543a20496e76616c6964206f7261636c652070726f6f6600006044820152606401610977565b5f868152600f60205260409020600401541580610e465750610e465f80516020613acb83398151915233611916565b610ea25760405162461bcd60e51b815260206004820152602760248201527f4167656e744e46543a2055736520636c6f6e654167656e74206f6e206d61726b6044820152666574706c61636560c81b6064820152608401610977565b600e8054905f610eb183613895565b919050559050610ec18782612717565b5f600f5f8881526020019081526020015f206040518060c00160405290815f8201548152602001600182018054610ef7906136d0565b80601f0160208091040260200160405190810160405280929190818152602001828054610f23906136d0565b8015610f6e5780601f10610f4557610100808354040283529160200191610f6e565b820191905f5260205f20905b815481529060010190602001808311610f5157829003601f168201915b50505050508152602001600282018054610f87906136d0565b80601f0160208091040260200160405190810160405280929190818152602001828054610fb3906136d0565b8015610ffe5780601f10610fd557610100808354040283529160200191610ffe565b820191905f5260205f20905b815481529060010190602001808311610fe157829003601f168201915b50505050508152602001600382015f9054906101000a90046001600160a01b03166001600160a01b03166001600160a01b031681526020016004820154815260200160058201548152505090506040518060c00160405280602086869050101561106957825161107f565b61107660205f8789613708565b61107f9161372f565b8152602001866110935782602001516110c9565b87878080601f0160208091040260200160405190810160405280939291908181526020018383808284375f920191909152505050505b81526020018260400151815260200182606001516001600160a01b031681526020018260800151815260200142815250600f5f8481526020019081526020015f205f820151815f0155602082015181600101908161112791906138ad565b506040820151600282019061113c90826138ad565b5060608201516003820180546001600160a01b0319166001600160a01b039283161790556080830151600483015560a09092015160059091015560405190891690839089907fafcb997b9dbf5ea2fdb1c69190293b8b3ad9fc98b62f467832a4a7bf050fc79d905f90a4876001600160a01b0316825f80516020613aab83398151915283604001516040516111d19190613175565b60405180910390a3506111f060015f80516020613aeb83398151915255565b9695505050505050565b5f61120460085490565b821061122c5760405163295f44f760e21b81525f600482015260248101839052604401610977565b6008828154811061123f5761123f613969565b905f5260205f2001549050919050565b33611259836114e5565b6001600160a01b03161461127f5760405162461bcd60e51b81526004016109779061397d565b61094e8282612730565b6112ca6040518060c001604052805f801916815260200160608152602001606081526020015f6001600160a01b031681526020015f81526020015f81525090565b6112d3826126e4565b6112ef5760405162461bcd60e51b81526004016109779061384a565b600f5f8381526020019081526020015f206040518060c00160405290815f8201548152602001600182018054611324906136d0565b80601f0160208091040260200160405190810160405280929190818152602001828054611350906136d0565b801561139b5780601f106113725761010080835404028352916020019161139b565b820191905f5260205f20905b81548152906001019060200180831161137e57829003601f168201915b505050505081526020016002820180546113b4906136d0565b80601f01602080910402602001604051908101604052809291908181526020018280546113e0906136d0565b801561142b5780601f106114025761010080835404028352916020019161142b565b820191905f5260205f20905b81548152906001019060200180831161140e57829003601f168201915b505050918352505060038201546001600160a01b031660208201526004820154604082015260059091015460609091015292915050565b3361146c836114e5565b6001600160a01b0316146114925760405162461bcd60e51b81526004016109779061397d565b5f828152600f6020526040908190206004018290555182907fb75c3813e46d6df91d4541fe287f5cf5658d406a61f199f698d759257ce95028906114d99084815260200190565b60405180910390a25050565b5f61088782612142565b5f6001600160a01b038216611519576040516322718ad960e21b81525f6004820152602401610977565b506001600160a01b03165f9081526003602052604090205490565b5f5f80516020613acb83398151915261154c816125db565b600e8054905f61155b83613895565b91905055915061156b8983612717565b6040518060c0016040528087815260200189898080601f0160208091040260200160405190810160405280939291908181526020018383808284375f92019190915250505090825250604080516020601f8901819004810282018101909252878152918101919088908890819084018382808284375f9201829052509385525050506001600160a01b038c16602080840191909152604080840188905242606090940193909352858252600f81529190208251815590820151600182019061163390826138ad565b506040820151600282019061164890826138ad565b5060608201516003820180546001600160a01b0319166001600160a01b039283161790556080830151600483015560a090920151600590910155604051908a169083905f80516020613aab833981519152906116a790899089906139d2565b60405180910390a350979650505050505050565b5f6116c5816125db565b600b80546001600160a01b0319166001600160a01b0384169081179091556040517f3df77beb5db05fcdd70a30fc8adf3f83f9501b68579455adbd100b8180940394905f90a25050565b33611719856114e5565b6001600160a01b03161461173f5760405162461bcd60e51b81526004016109779061397d565b6001600160a01b0383166117955760405162461bcd60e51b815260206004820152601760248201527f4167656e744e46543a205a65726f206578656375746f720000000000000000006044820152606401610977565b5f8481526012602090815260408083206001600160a01b038716845290915290205460ff16806117d257505f848152601160205260409020546064115b61182a5760405162461bcd60e51b8152602060048201526024808201527f4167656e744e46543a204d617820617574686f72697a6174696f6e732072656160448201526318da195960e21b6064820152608401610977565b5f8481526012602090815260408083206001600160a01b038716845290915290205460ff166118ae575f8481526011602090815260408083208054600180820183559185528385200180546001600160a01b0319166001600160a01b03891690811790915588855260128452828520908552909252909120805460ff191690911790555b5f8481526010602090815260408083206001600160a01b038716845290915290206118da828483613790565b506040516001600160a01b0384169085907f6b759ed2b6cfe980ab7df296b16f139dd2d334802653e3a3d396153450b9cff1905f90a350505050565b5f918252600a602090815260408084206001600160a01b0393909316845291905290205460ff1690565b60606001805461089b906136d0565b5f61195861225a565b600c543410156119a25760405162461bcd60e51b8152602060048201526015602482015274496e73756666696369656e74206d696e742066656560581b6044820152606401610977565b600e8054905f6119b183613895565b9190505590506119c18882612717565b6040518060c0016040528086815260200188888080601f0160208091040260200160405190810160405280939291908181526020018383808284375f92019190915250505090825250604080516020601f8801819004810282018101909252868152918101919087908790819084018382808284375f9201829052509385525050506001600160a01b038b16602080840191909152604080840187905242606090940193909352848252600f815291902082518155908201516001820190611a8990826138ad565b5060408201516002820190611a9e90826138ad565b5060608201516003820180546001600160a01b0319166001600160a01b039092169190911790556080820151600482015560a0909101516005909101553415611b1957600d546040516001600160a01b03909116903480156108fc02915f818181858888f19350505050158015611b17573d5f803e3d5ffd5b505b876001600160a01b0316815f80516020613aab8339815191528686604051611b429291906139d2565b60405180910390a3611b6060015f80516020613aeb83398151915255565b979650505050505050565b61094e3383836127d9565b6060611b81826126e4565b611b9d5760405162461bcd60e51b81526004016109779061384a565b5f828152600f602052604090206001018054611bb8906136d0565b80601f0160208091040260200160405190810160405280929190818152602001828054611be4906136d0565b8015610d145780601f10611c0657610100808354040283529160200191610d14565b820191905f5260205f20905b815481529060010190602001808311611c125750939695505050505050565b611c3c848484610952565b6109da33858585856128a0565b6060611c5482612142565b505f611c6a60408051602081019091525f815290565b90505f815111611c885760405180602001604052805f815250611cb3565b80611c92846129c8565b604051602001611ca39291906139fc565b6040516020818303038152906040525b9392505050565b5f828152600a6020526040902060010154611cd4816125db565b6109da8383612679565b5f5f80516020613acb833981519152611cf6816125db565b611cfe61225a565b611d07876126e4565b611d235760405162461bcd60e51b81526004016109779061384a565b600e8054905f611d3283613895565b919050559150611d428883612717565b5f600f5f8981526020019081526020015f206040518060c00160405290815f8201548152602001600182018054611d78906136d0565b80601f0160208091040260200160405190810160405280929190818152602001828054611da4906136d0565b8015611def5780601f10611dc657610100808354040283529160200191611def565b820191905f5260205f20905b815481529060010190602001808311611dd257829003601f168201915b50505050508152602001600282018054611e08906136d0565b80601f0160208091040260200160405190810160405280929190818152602001828054611e34906136d0565b8015611e7f5780601f10611e5657610100808354040283529160200191611e7f565b820191905f5260205f20905b815481529060010190602001808311611e6257829003601f168201915b50505050508152602001600382015f9054906101000a90046001600160a01b03166001600160a01b03166001600160a01b031681526020016004820154815260200160058201548152505090506040518060c001604052806020878790501015611eea578251611f00565b611ef760205f888a613708565b611f009161372f565b815260200187611f14578260200151611f4a565b88888080601f0160208091040260200160405190810160405280939291908181526020018383808284375f920191909152505050505b81526020018260400151815260200182606001516001600160a01b031681526020018260800151815260200142815250600f5f8581526020019081526020015f205f820151815f01556020820151816001019081611fa891906138ad565b5060408201516002820190611fbd90826138ad565b5060608201516003820180546001600160a01b0319166001600160a01b039283161790556080830151600483015560a090920151600590910155604051908a169084908a907fafcb997b9dbf5ea2fdb1c69190293b8b3ad9fc98b62f467832a4a7bf050fc79d905f90a4886001600160a01b0316835f80516020613aab83398151915283604001516040516120529190613175565b60405180910390a35061207160015f80516020613aeb83398151915255565b509695505050505050565b6001600160a01b039182165f90815260056020908152604080832093909416825291909152205460ff1690565b5f6120b3816125db565b50600c55565b5f6120c3816125db565b50600d80546001600160a01b0319166001600160a01b0392909216919091179055565b5f6120f0826126e4565b61210c5760405162461bcd60e51b81526004016109779061384a565b505f908152600f602052604090205490565b5f6001600160e01b03198216637965db0b60e01b1480610887575061088782612a58565b5f818152600260205260408120546001600160a01b03168061088757604051637e27328960e01b815260048101849052602401610977565b610d538383836001612a7c565b5f80612194858585612b80565b90506001600160a01b0381166121f0576121eb84600880545f838152600960205260408120829055600182018355919091527ff3f7a9fe364faab93b216da50a3214154f22a0a2b415b23a84c8169e8b636ee30155565b612213565b846001600160a01b0316816001600160a01b031614612213576122138185612c72565b6001600160a01b03851661222f5761222a84612cef565b612252565b846001600160a01b0316816001600160a01b031614612252576122528585612d96565b949350505050565b612262612de4565b60025f80516020613aeb83398151915255565b5f80612280836114e5565b9050806001600160a01b0316846001600160a01b031614806122a757506122a7818561207c565b806122525750836001600160a01b03166122c08461091c565b6001600160a01b031614949350505050565b600b545f906001600160a01b03166122ec57506001610887565b600b546040515f9182916001600160a01b039091169061231290879087906024016139d2565b60408051601f198184030181529181526020820180516001600160e01b0316632ae132ff60e11b179052516123479190613a10565b5f60405180830381855afa9150503d805f811461237f576040519150601f19603f3d011682016040523d82523d5f602084013e612384565b606091505b50915091508180156123a55750808060200190518101906123a59190613a1b565b95945050505050565b5f818152601160205260408120905b81548110156125175760125f8481526020019081526020015f205f8383815481106123ea576123ea613969565b5f9182526020808320909101546001600160a01b0316835282019290925260400190205460ff161561250f575f8381526012602052604081208354829085908590811061243957612439613969565b5f918252602080832091909101546001600160a01b031683528281019390935260409182018120805460ff19169415159490941790935585835260109091528120835490919084908490811061249157612491613969565b5f9182526020808320909101546001600160a01b0316835282019290925260400181206124bd916130b1565b8181815481106124cf576124cf613969565b5f9182526020822001546040516001600160a01b039091169185917f1ba7e5fd98e9d431d96d40388196be40e63f5087db78ee7ac286e3d6568fce4e9190a35b6001016123bd565b505f82815260116020526040812061094e916130e8565b6001600160a01b03821661255757604051633250574960e11b81525f6004820152602401610977565b5f61256383835f612187565b90506001600160a01b03811661258f57604051637e27328960e01b815260048101839052602401610977565b836001600160a01b0316816001600160a01b0316146109da576040516364283d7b60e01b81526001600160a01b0380861660048301526024820184905282166044820152606401610977565b6125e58133612e15565b50565b5f6125f38383611916565b612672575f838152600a602090815260408083206001600160a01b03861684529091529020805460ff1916600117905561262a3390565b6001600160a01b0316826001600160a01b0316847f2f8788117e7eff1d82e926ec794901d17c78024a50270940304540a733656f0d60405160405180910390a4506001610887565b505f610887565b5f6126848383611916565b15612672575f838152600a602090815260408083206001600160a01b0386168085529252808320805460ff1916905551339286917ff6391f5c32d9c69d2a47ea670b442974b53935d1edc7fd64eb21e047a839171b9190a4506001610887565b5f80821180156126f55750600e5482105b801561088757505f612706836114e5565b6001600160a01b0316141592915050565b61094e828260405180602001604052805f815250612e4e565b5f8281526012602090815260408083206001600160a01b038516845290915290205460ff161561094e575f8281526012602090815260408083206001600160a01b038516808552908352818420805460ff191690558584526010835281842090845290915281206127a0916130b1565b6040516001600160a01b0382169083907f1ba7e5fd98e9d431d96d40388196be40e63f5087db78ee7ac286e3d6568fce4e905f90a35050565b6001600160a01b0383166128025760405163a9fbf51f60e01b81525f6004820152602401610977565b6001600160a01b03821661283457604051630b61174360e31b81526001600160a01b0383166004820152602401610977565b6001600160a01b038381165f81815260056020908152604080832094871680845294825291829020805460ff191686151590811790915591519182527f17307eab39ab6107e8899845ad3d59bd9653f200f220920489ca2b5937696c31910160405180910390a3505050565b6001600160a01b0383163b156129c157604051630a85bd0160e11b81526001600160a01b0384169063150b7a02906128e2908890889087908790600401613a36565b6020604051808303815f875af192505050801561291c575060408051601f3d908101601f1916820190925261291991810190613a68565b60015b612983573d808015612949576040519150601f19603f3d011682016040523d82523d5f602084013e61294e565b606091505b5080515f0361297b57604051633250574960e11b81526001600160a01b0385166004820152602401610977565b805160208201fd5b6001600160e01b03198116630a85bd0160e11b146129bf57604051633250574960e11b81526001600160a01b0385166004820152602401610977565b505b5050505050565b60605f6129d483612e65565b60010190505f8167ffffffffffffffff8111156129f3576129f36135bf565b6040519080825280601f01601f191660200182016040528015612a1d576020820181803683370190505b5090508181016020015b5f19016f181899199a1a9b1b9c1cb0b131b232b360811b600a86061a8153600a8504945084612a2757509392505050565b5f6001600160e01b0319821663780e9d6360e01b1480610887575061088782612f3c565b8080612a9057506001600160a01b03821615155b15612b51575f612a9f84612142565b90506001600160a01b03831615801590612acb5750826001600160a01b0316816001600160a01b031614155b8015612ade5750612adc818461207c565b155b15612b075760405163a9fbf51f60e01b81526001600160a01b0384166004820152602401610977565b8115612b4f5783856001600160a01b0316826001600160a01b03167f8c5be1e5ebec7d5bd14f71427d1e84f3dd0314c0f7b2291e5b200ac8c7c3b92560405160405180910390a45b505b50505f90815260046020526040902080546001600160a01b0319166001600160a01b0392909216919091179055565b5f828152600260205260408120546001600160a01b0390811690831615612bac57612bac818486612f8b565b6001600160a01b03811615612be657612bc75f855f80612a7c565b6001600160a01b0381165f90815260036020526040902080545f190190555b6001600160a01b03851615612c14576001600160a01b0385165f908152600360205260409020805460010190555b5f8481526002602052604080822080546001600160a01b0319166001600160a01b0389811691821790925591518793918516917fddf252ad1be2c89b69c2b068fc378daa952ba7f163c4a11628f55a4df523b3ef91a4949350505050565b5f612c7c836114ef565b5f838152600760209081526040808320546001600160a01b0388168452600690925290912091925090818314612cd1575f83815260208281526040808320548584528184208190558352600790915290208290555b5f938452600760209081526040808620869055938552525081205550565b6008545f90612d0090600190613a83565b5f8381526009602052604081205460088054939450909284908110612d2757612d27613969565b905f5260205f20015490508060088381548110612d4657612d46613969565b5f918252602080832090910192909255828152600990915260408082208490558582528120556008805480612d7d57612d7d613a96565b600190038181905f5260205f20015f9055905550505050565b5f6001612da2846114ef565b612dac9190613a83565b6001600160a01b039093165f908152600660209081526040808320868452825280832085905593825260079052919091209190915550565b5f80516020613aeb83398151915254600203612e1357604051633ee5aeb560e01b815260040160405180910390fd5b565b612e1f8282611916565b61094e5760405163e2517d3f60e01b81526001600160a01b038216600482015260248101839052604401610977565b612e588383612fef565b610d53335f8585856128a0565b5f8072184f03e93ff9f4daa797ed6e38ed64bf6a1f0160401b8310612ea35772184f03e93ff9f4daa797ed6e38ed64bf6a1f0160401b830492506040015b6d04ee2d6d415b85acef81000000008310612ecf576d04ee2d6d415b85acef8100000000830492506020015b662386f26fc100008310612eed57662386f26fc10000830492506010015b6305f5e1008310612f05576305f5e100830492506008015b6127108310612f1957612710830492506004015b60648310612f2b576064830492506002015b600a83106108875760010192915050565b5f6001600160e01b031982166380ac58cd60e01b1480612f6c57506001600160e01b03198216635b5e139f60e01b145b8061088757506301ffc9a760e01b6001600160e01b0319831614610887565b612f96838383613050565b610d53576001600160a01b038316612fc457604051637e27328960e01b815260048101829052602401610977565b60405163177e802f60e01b81526001600160a01b038316600482015260248101829052604401610977565b6001600160a01b03821661301857604051633250574960e11b81525f6004820152602401610977565b5f61302483835f612187565b90506001600160a01b03811615610d53576040516339e3563760e11b81525f6004820152602401610977565b5f6001600160a01b038316158015906122525750826001600160a01b0316846001600160a01b031614806130895750613089848461207c565b806122525750505f908152600460205260409020546001600160a01b03908116911614919050565b5080546130bd906136d0565b5f825580601f106130cc575050565b601f0160209004905f5260205f20908101906125e591906130ff565b5080545f8255905f5260205f20908101906125e591905b5b80821115613113575f8155600101613100565b5090565b6001600160e01b0319811681146125e5575f80fd5b5f6020828403121561313c575f80fd5b8135611cb381613117565b5f81518084528060208401602086015e5f602082860101526020601f19601f83011685010191505092915050565b602081525f611cb36020830184613147565b5f60208284031215613197575f80fd5b5035919050565b80356001600160a01b03811681146131b4575f80fd5b919050565b5f80604083850312156131ca575f80fd5b6131d38361319e565b946020939093013593505050565b5f805f606084860312156131f3575f80fd5b6131fc8461319e565b925061320a6020850161319e565b9150604084013590509250925092565b5f8083601f84011261322a575f80fd5b50813567ffffffffffffffff811115613241575f80fd5b602083019150836020828501011115613258575f80fd5b9250929050565b5f805f805f805f60a0888a031215613275575f80fd5b61327e8861319e565b965061328c6020890161319e565b955060408801359450606088013567ffffffffffffffff808211156132af575f80fd5b6132bb8b838c0161321a565b909650945060808a01359150808211156132d3575f80fd5b506132e08a828b0161321a565b989b979a50959850939692959293505050565b5f8060408385031215613304575f80fd5b823591506133146020840161319e565b90509250929050565b602080825282518282018190525f9190848201906040850190845b8181101561335d5783516001600160a01b031683529284019291840191600101613338565b50909695505050505050565b5f60208284031215613379575f80fd5b611cb38261319e565b5f805f805f8060808789031215613397575f80fd5b6133a08761319e565b955060208701359450604087013567ffffffffffffffff808211156133c3575f80fd5b6133cf8a838b0161321a565b909650945060608901359150808211156133e7575f80fd5b506133f489828a0161321a565b979a9699509497509295939492505050565b60208152815160208201525f602083015160c0604084015261342b60e0840182613147565b90506040840151601f198483030160608501526134488282613147565b91505060018060a01b036060850151166080840152608084015160a084015260a084015160c08401528091505092915050565b5f806040838503121561348c575f80fd5b50508035926020909101359150565b5f805f805f805f60a0888a0312156134b1575f80fd5b6134ba8861319e565b9650602088013567ffffffffffffffff808211156134d6575f80fd5b6134e28b838c0161321a565b909850965060408a0135955060608a0135915080821115613501575f80fd5b5061350e8a828b0161321a565b989b979a50959894979596608090950135949350505050565b5f805f806060858703121561353a575f80fd5b8435935061354a6020860161319e565b9250604085013567ffffffffffffffff811115613565575f80fd5b6135718782880161321a565b95989497509550505050565b80151581146125e5575f80fd5b5f806040838503121561359b575f80fd5b6135a48361319e565b915060208301356135b48161357d565b809150509250929050565b634e487b7160e01b5f52604160045260245ffd5b5f805f80608085870312156135e6575f80fd5b6135ef8561319e565b93506135fd6020860161319e565b925060408501359150606085013567ffffffffffffffff80821115613620575f80fd5b818701915087601f830112613633575f80fd5b813581811115613645576136456135bf565b604051601f8201601f19908116603f0116810190838211818310171561366d5761366d6135bf565b816040528281528a6020848701011115613685575f80fd5b826020860160208301375f60208483010152809550505050505092959194509250565b5f80604083850312156136b9575f80fd5b6136c28361319e565b91506133146020840161319e565b600181811c908216806136e457607f821691505b60208210810361370257634e487b7160e01b5f52602260045260245ffd5b50919050565b5f8085851115613716575f80fd5b83861115613722575f80fd5b5050820193919092039150565b80356020831015610887575f19602084900360031b1b1692915050565b601f821115610d5357805f5260205f20601f840160051c810160208510156137715750805b601f840160051c820191505b818110156129c1575f815560010161377d565b67ffffffffffffffff8311156137a8576137a86135bf565b6137bc836137b683546136d0565b8361374c565b5f601f8411600181146137ed575f85156137d65750838201355b5f19600387901b1c1916600186901b1783556129c1565b5f83815260208120601f198716915b8281101561381c57868501358255602094850194600190920191016137fc565b5086821015613838575f1960f88860031b161c19848701351681555b505060018560011b0183555050505050565b6020808252601e908201527f4167656e744e46543a20546f6b656e20646f6573206e6f742065786973740000604082015260600190565b634e487b7160e01b5f52601160045260245ffd5b5f600182016138a6576138a6613881565b5060010190565b815167ffffffffffffffff8111156138c7576138c76135bf565b6138db816138d584546136d0565b8461374c565b602080601f83116001811461390e575f84156138f75750858301515b5f19600386901b1c1916600185901b1785556129bf565b5f85815260208120601f198616915b8281101561393c5788860151825594840194600190910190840161391d565b508582101561395957878501515f19600388901b60f8161c191681555b5050505050600190811b01905550565b634e487b7160e01b5f52603260045260245ffd5b60208082526013908201527220b3b2b73a27232a1d102737ba1037bbb732b960691b604082015260600190565b81835281816020850137505f828201602090810191909152601f909101601f19169091010190565b602081525f6122526020830184866139aa565b5f81518060208401855e5f93019283525090919050565b5f612252613a0a83866139e5565b846139e5565b5f611cb382846139e5565b5f60208284031215613a2b575f80fd5b8151611cb38161357d565b6001600160a01b03858116825284166020820152604081018390526080606082018190525f906111f090830184613147565b5f60208284031215613a78575f80fd5b8151611cb381613117565b8181038181111561088757610887613881565b634e487b7160e01b5f52603160045260245ffdfe4163bfac127160e0f9f156ad45f09360dfe365c4fcdf394c40bdfece890ee6f79f2df0fed2c77648de5860a4cc508cd0818c85b8b8a1ab4ceeef8d981c8956a69b779b17422d0df92223018b32b4d1fa46e071723d6817e2486d003becc55f00a26469706673582212201cc6e439030e7edf44c2b6026f9de8471c1b8a5b20dd5b7c19eac7a414975bf864736f6c63430008190033",
  "linkReferences": {},
  "deployedLinkReferences": {}
}