{
  "_format": "hh-sol-artifact-1",
  "contractName": "MockOracle",
  "sourceName": "contracts/AgentNFT.sol",
  "abi": [
    {
      "inputs": [
        {
          "internalType": "bytes",
          "name": "",
          "type": "bytes"
        }
      ],
      "name": "verifyProof",
      "outputs": [
        {
          "internalType": "bool",
          "name": "",
          "type": "bool"
        }
      ],
      "stateMutability": "pure",
      "type": "function"
    }
  ],
  "bytecode": "0x6080604052348015600e575f80fd5b5060ee8061001b5f395ff3fe6080604052348015600e575f80fd5b50600436106026575f3560e01c806355c265fe14602a575b5f80fd5b603d60353660046051565b600192915050565b604051901515815260200160405180910390f35b5f80602083850312156061575f80fd5b823567ffffffffffffffff808211156077575f80fd5b818501915085601f8301126089575f80fd5b8135818111156096575f80fd5b86602082850101111560a6575f80fd5b6020929092019691955090935050505056fea264697066735822122005f9645b6c6237e5748baa1e5a82a6596b375ed66dbf74b260d97425ac912b9a64736f6c63430008190033",
  "linkReferences": {},
  "deployedLinkReferences": {}
}